:100000000C940D030C943F210C9445030C94450370
:100010000C9445030C9445030C9445030C94450340
:100020000C9445030C9445030C94FC260C94D027A7
:100030000C94AB1F0C9445030C9445030C9445039E
:100040000C9445030C9445030C9445030C94450310
:100050000C9445030C944E200C9445030C944503DA
:100060000C9445030C9445030C9445030C944503F0
:100070000C9445030C9445030C9445030C944503E0
:100080000C9445030C9445030C9445030C944503D0
:100090000C9445030C9445030C9445030C944503C0
:1000A0000C9445030C9445030C9445032B00140059
:1000B0001A000800150017001C0018000C001200A0
:1000C00013002A00E00004001600070009000A00DF
:1000D0000B000D000E000F0033003400E1001D0086
:1000E0001B00060019000500110010003600370043
:1000F0003800E500000000000000E3002A002C00AA
:100100002C002800E60000000000000000000000B5
:1001100000000000000000000000000000000000DF
:1001200000000000000000000000000000000000CF
:1001300000000000000000000000000000000000BF
:1001400000000000000000000000000000000000AF
:10015000000000000000000000000000000000009F
:100160000000000000000000000000002B00140050
:100170001A000800150017001C0018000C001200DF
:1001800013002A00E00004001600070009000A001E
:100190000B000D000E000F0033003400E1001D00C5
:1001A0001B00060019000500110010003600370082
:1001B0003800E500000000000000E3002A002C00E9
:1001C0002C002800E60000000000000000000000F5
:1001D000000000000000000000000000000000001F
:1001E000000000000000000000000000000000000F
:1001F00000000000000000000000000000000000FF
:1002000000000000000000000000000000000000EE
:1002100000000000000000000000000000000000DE
:100220000000000000000000000000002B0014008F
:100230001A000800150017001C0018000C0012001E
:1002400013002A00E00004001600070009000A005D
:100250000B000D000E000F0033003400E1001D0004
:100260001B000600190005001100100036003700C1
:100270003800E500000000000000E3002A002C0028
:100280002C002800E6000000000000000000000034
:10029000000000000000000000000000000000005E
:1002A000000000000000000000000000000000004E
:1002B000000000000000000000000000000000003E
:1002C000000000000000000000000000000000002E
:1002D000000000000000000000000000000000001E
:1002E0000000000000000000000000002B001400CF
:1002F0001A000800150017001C0018000C0012005E
:1003000013002A00E00004001600070009000A009C
:100310000B000D000E000F0033003400E1001D0043
:100320001B00060019000500110010003600370000
:100330003800E500000000000000E3002A002C0067
:100340002C002800E6000000000000000000000073
:10035000000000000000000000000000000000009D
:10036000000000000000000000000000000000008D
:10037000000000000000000000000000000000007D
:10038000000000000000000000000000000000006D
:10039000000000000000000000000000000000005D
:1003A000000000000000000000000000000000004D
:1003B000000000002A2B28000000000000000000C0
:1003C0000000000000000029000000002C1E342066
:1003D000212224342627252E362D3738271E1F208C
:1003E0002122232425263333362E37381F040506D1
:1003F0000708090A0B0C0D0E0F1011121314151615
:100400001718191A1B1C1D2F3130232D3504050612
:100410000708090A0B0C0D0E0F10111213141516F4
:100420001718191A1B1C1D2F3130354C0000000005
:1004300000000000000000000000000000000000BC
:1004400000000000000000000000000000000000AC
:100450007E0F00D4FFFFFFC70000007816036D0079
:1004600079006B006500790062006F006100720026
:1004700064000000160369006E00740065007200DD
:100480006500730074006F0072000000040309042B
:1004900009025B00030100A0FA0904000001030146
:1004A0000100092111010001224400070581030810
:1004B00000010904010002030000000921110100EC
:1004C0000122220007058203200001070503032003
:1004D00000010904020001030000000921110100CC
:1004E0000122B6000705840320000112010002006A
:1004F000000008826104000001010200010660FFA3
:100500000961A1010962150026FF00952075088187
:10051000020963150026FF00952075089102C005A9
:10052000010902A10185020901A10005091901299A
:10053000081500250195087501810205010930099A
:10054000311581257F9502750881060938158125A9
:100550007F950175088106050C0A38021581257FF3
:10056000950175088106C0C005010980A1018503B8
:1005700019012AB700150126B700950175108100F1
:10058000C0050C0901A101850419012AA002150169
:1005900026A002950175108100C005010906A10180
:1005A0008506050719E029E715002501950875015D
:1005B00081020507190029EF1500250195F0750145
:1005C000810205081901290595057501910295011A
:1005D00075039101C005010906A101050719E0296C
:1005E000E7150025019508750181029501750881BF
:1005F000010507190029FF150026FF00950675085B
:1006000081000508190129051500250195057501C9
:100610009102950175039101C00011241FBECFEF17
:10062000DAE0DEBFCDBF04B603FE18C080912C0314
:1006300090912D03A0912E03B0912F038730904B02
:10064000A740B04B59F410922C0310922D03109236
:100650002E0310922F03E0E0F8E3099511E0A0E0EB
:10066000B1E0E2E6F5E502C005900D92A63CB107C7
:10067000D9F723E0A6ECB1E001C01D92AC32B2077D
:10068000E1F70E9456150C945D2A0C94000084300A
:10069000B8F46830A8F44C3098F450E09CE0699FBE
:1006A000400D511D1124FA0190E6899FE00DF11DC6
:1006B0001124EE0FFF1FE455FF4F8591949108958B
:1006C00081E090E0089581E008950E946303089519
:1006D00081E008950E94630308950E946A030895CB
:1006E00008950E9470030895A6E0B0E0EAE7F3E001
:1006F0000C94B92949835A839E833091CD01898115
:100700009A8131111AC03E81332399F0222389F056
:100710000E94E708182F682F89819A810E94C308D8
:1007200069817A81812F0E940F102696E3E00C9454
:10073000D5290E94D508182FF3CF0E94E7086981B8
:100740007A81F1CFFC01262F408151816281738132
:10075000848195810E9474030895CF93DF93EC0107
:1007600061E00E94A203BE010E946503DF91CF9168
:100770000895CF93DF93EC0160E00E94A203BE01D5
:100780000E947103DF91CF91089581E008950E9446
:10079000C5030895CF93C82F0E94BF078C2F0E94D6
:1007A000C7032FEF84E39CE0215080409040E1F7A5
:1007B00000C00000CF91089581E00E94CA030E940A
:1007C0007220089580E00E94CA030E949620089536
:1007D0000F931F93CF93DF938C0161E00E94A203DC
:1007E000EC01B8010E94D41C811106C080E0DF91A9
:1007F000CF911F910F910895B801CE010E946D0312
:100800008823A1F3B801CE010E94E11B882371F374
:10081000B801CE010E944817882341F3B801CE01E8
:100820000E941E17882311F3B801CE010E94251CD7
:100830008823E1F2F8018581882361F0C330FCE769
:10084000DF07E9F058F4C115ECE7DE07A9F0C13085
:10085000DC47B9F0C8010E946803C9CFCB358CE7EB
:10086000D807A9F0CC35ECE7DE0771F0CA35DC47D4
:1008700089F70E94500DEECF0E94DC03B7CF0E9493
:10088000580D0E94E203B2CF0E94460DE3CF0E94B2
:10089000540DE0CF0E94871F0E94710408950E94AA
:1008A00075040E948C1F0895089581E008950895AD
:1008B000CF93DF93D82F0E945504C82F882319F0B7
:1008C0008D2F0E9457048C2FDF91CF9108950895AA
:1008D000CF93C82F0E9454048C2F0E945804CF91AC
:1008E000089580E00E94680408950E94C01D0E943F
:1008F00068040895CF930E94C01DC82F8091C8013D
:100900008C1779F0C093C8010E9417206093C90129
:100910007093CA018093CB019093CC018C2F0E94DD
:100920006804CF910895ADE0B0E0E9E9F4E00C94FB
:10093000BA29488759876A877B878C879D87911159
:100940000E94560C1F8286E0FE013896DE01119649
:1009500001900D928A95E1F78D8181110DC0298159
:100960003A814B815C816D817E818F810E94A00BD9
:100970002D96E2E00C94D629CE0101960E94AD039B
:100980008111EDCFF5CFFC012481213021F480814C
:1009900091810E9414090895662329F00E94A918E4
:1009A0000E948E1908950E941519FACFCF93C82F6F
:1009B000882399F08CEF8C0F813A88F48C2F0E9459
:1009C000671E882329F08C2F0E94071F0E94EA0CC3
:1009D0008C2F0E94F01E0E94EA0CCF91089580E2B5
:1009E0008C0F883048F4C77081E001C0880FCA9529
:1009F000EAF70E94390CEFCFEBE5EC0FE33040F45F
:100A0000F0E0E759FE4F808190E00E94FB1DE5CFAA
:100A1000E8E5EC0FEB3150F4F0E0EE0FFF1FED5C7A
:100A2000FE4F808191810E94201ED7CF83E38C0FDF
:100A3000833198F661E08C2F0E94CC04CECF8823BE
:100A400081F19CEF980F913A28F40E94071F0E94B1
:100A5000EA0C089590E2980F983050F4877091E076
:100A600001C0990F8A95EAF7892F0E943F0CEFCFBA
:100A70009BE5980F933028F490E080E00E94FB1DE6
:100A8000089598E5980F9B3128F490E080E00E944B
:100A9000201E089593E3980F933118F460E00E94AC
:100AA000CC0408951F93CF93DF93182FEB010E947E
:100AB000D604209739F4812F0E941F05DF91CF9132
:100AC0001F9108958FE99FE00197F1F700C00000A2
:100AD0002197EFCF70E060E0893311F460E570E0BA
:100AE0000E9452050895882321F00E94390C0E942B
:100AF000EA0C0895882321F00E943F0C0E94EA0C22
:100B00000895B0E0A0E0E7E8F5E00C94B3296C01AB
:100B1000D62FC72FFC011581068102950F700E9408
:100B20002F0CE82E8823F9F0E12E1123E1F08C2F11
:100B3000807F803461F080E28D0F883008F18C2F47
:100B4000807E803221F4D230D8F00023C9F0809129
:100B5000F80282FF15C082E00E941A0D0E942F0C3D
:100B600091E0E82EE926BC2EB2949FE0B922FBE08A
:100B7000FB15B8F1EB2DF0E0E15AF54D0C949D29F1
:100B8000E12CF1CF0C2F0F70C07F11F00295007F88
:100B9000112399F0002359F080E28D0F883010F076
:100BA000D11107C0802F0E94390C0E94EA0C8D2FB2
:100BB0005AC0802F0E94490CF8CF8D2F0E941F052C
:100BC000002379F080E28D0F883010F0D11104C03D
:100BD000802F0E943F0C03C0802F0E944F0C0E9468
:100BE000EA0CEB2DE850FF0B349720F40E94C01D57
:100BF0000E946804EE2089F00E942B0C80FD0DC03D
:100C0000F60115820E94250C0E943708C6010E9439
:100C100086070E94250C0E944308CDB7DEB7E9E0A5
:100C20000C94CF292C2F2F70F22EC07FC03219F0D8
:100C3000F29480EFF822DD2341F0D130D1F111237D
:100C400009F444C00023F1F0B2CF8091F80282FD94
:100C500015C0112359F0FF2029F08F2D0E94390C67
:100C60000E94EA0C80E00E94D604BBCF80E00E9484
:100C70001F05FF2009F4B5CF8F2DABCF112369F0ED
:100C8000011104C08F2D0E947305ABCF013009F014
:100C9000A8CF8F2D0E946D0CA4CF0111A2CF8F2D54
:100CA0000E947A058F2D0E94790C8F2D0E945D0C79
:100CB00098CF112321F0063008F093CFE3CF053011
:100CC00008F08FCF8F2D0E947A058BCF0023D1F3B0
:100CD000D93349F43FEF87EE93E0315080409040A4
:100CE000E1F700C000008D2F0E941F057ACF8C2FE6
:100CF00086958695837069F0813009F072CF8D2FCB
:100D00009C2F9370111102C080E090E00E94201E81
:100D100068CF8D2F9C2F9370111102C080E090E05E
:100D20000E94FB1D5ECF612F8D2F0E94CC0459CFF6
:100D30008C2F837079F5111154CF4D2F4295469524
:100D40004770440F440F8D2F8F70042E01C0880F01
:100D50000A94EAF72D2F2071D4FF07C02FE030E06E
:100D600001C0220F4A95EAF72095C695C695C37033
:100D7000822BC23049F058F4C13019F00E94130898
:100D800030CF0E940D082DCF0E9419082ACF0E9453
:100D90000A0827CF8695112311F08C2F81708823A4
:100DA00009F41FCF4D2F429546954770440F440FCD
:100DB0008D2F8F70042E01C0880F0A94EAF72D2F13
:100DC0002071D4FF07C02FE030E001C0220F4A9508
:100DD000EAF72095C695C695C370822BC23049F0BC
:100DE00058F4C13019F00E946208FBCE0E945C08E2
:100DF000F8CE0E946808F5CE0E942508F2CECF708A
:100E0000112329F08C2F0E9437088D2F3CCF8D2F76
:100E10000E947A058C2F0E944308E3CED23F41F115
:100E200060F4D03FB9F0D13F81F0112309F446C0FE
:100E30000111BDCE8C2F8F711FC0D33F01F1D43F64
:100E4000A1F78091F80282FD24C08C2F8F711123AD
:100E500011F312C0112341F0053008F0C2CE8C2FDF
:100E60008F710E945008BDCE063008F0BACEF7CF81
:100E70008C2F8F711111CFCF0E943708B2CE112362
:100E800029F08C2F8F710E942E08ABCE0E942A0869
:100E9000A8CE112349F0CF718C2F0E94370863E050
:100EA0008C2F0E94FC0C9DCE81E00E941A0D023016
:100EB00008F497CE82E00E941A0D93CE002359F0D9
:100EC000D93309F010CFEFEFF7EE23E0E150F04017
:100ED0002040E1F706CF8C2F8F719DCF0F931F938A
:100EE000CF93DF93EC01688179818D810E941F0986
:100EF0008C010E946E080E940908B801CE010E9470
:100F00008105DF91CF911F910F910895CF93DF93CA
:100F1000EC018C81882399F0CE010E94E8038111B5
:100F200011C00E942F0C882351F08D81882339F045
:100F30008091F80282FF03C082E00E941A0DDF91C7
:100F4000CF910895CE010E946E07CE010E94B90391
:100F5000F6CF90E080E00E94FB1D90E080E00E94D0
:100F6000201E0E94560C0E94EA0C0E94AA190E94A0
:100F70008E1908950E941E1F0E94A90708950E94BD
:100F8000460C0E94BA07089592959F70963091F092
:100F900058F4925F9F70923058F4803F19F030F40B
:100FA000883E30F481E008959A5FF4CF843FD1F316
:100FB00080E00895883EB0F3813FD1F7F3CFFC0184
:100FC0002481222339F0808191810E9414090E949A
:100FD000C407089580E00895A6E0B0E0E2EFF7E0EE
:100FE0000C94BA292696E2E00C94D629A7E0B0E04A
:100FF000ECEFF7E00C94BA292796E2E00C94D6299E
:1010000008950E94000808950E9401088093F3014A
:10101000089508950E94040808959091F301892B82
:101020000E94040808959091F30189230E94040806
:1010300008959091F30189270E94040808950E9461
:10104000000808950E941F0808950E9422088093B6
:10105000F201089580E00E942508089591E001C002
:10106000990F8A95EAF7892F0E942508089521E0B3
:1010700030E001C0220F8A95EAF78091F201822BBD
:101080000E942508089521E030E001C0220F8A95D2
:10109000EAF720958091F20182230E9425080895A5
:1010A00021E030E001C0220F8A95EAF78091F20139
:1010B00082270E94250808959091F201892B0E94B1
:1010C000250808959091F20189230E94250808952A
:1010D0009091F20189270E94250808950895262FEE
:1010E000277091E001C0990F2A95EAF723E07695E1
:1010F00067952A95E1F7FB01EE0FFF1FE60FF71F3B
:10110000E40FF51F50E040E0682F70E08191DF01AF
:1011100011979B01042E02C0369527950A94E2F799
:10112000217021952827292328272C934F5F5F4F73
:101130004330510559F70895A82FA77023E09695DD
:1011400087952A95E1F7FC01EE0FFF1FE80FF91FC5
:10115000E60FF71F50E040E080E0219130E00A2EDA
:1011600002C0369527950A94E2F721703327042EA2
:1011700001C0220F0A94EAF7822B4F5F5F4F433082
:10118000510559F70895262F983070F48C3060F48B
:10119000682F70E08CE0989F600D711D11244EEC5B
:1011A00051E0822F0E946F080895292F983068F42B
:1011B0008C3058F490E06EEC71E03CE0239F800DA1
:1011C000911D11240E949C08089580E00895CF92FB
:1011D000DF92FF920F931F93CF93DF936C010091E7
:1011E000F2018091F301082BC3E0D0E010E0FC2E67
:1011F000C8010C2E02C0959587950A94E2F780FDF0
:101200000CC02197A0F7F12C8F2DDF91CF911F916A
:101210000F91FF90DF90CF900895B6018C2F0E9420
:101220001B10019771F3F0CFCF93DF93EC010E9475
:10123000E708BE010E941B10DF91CF9108951F9314
:10124000CF93DF93EB019091CD01992339F0CB013E
:101250000E941409DF91CF911F910895882369F0AE
:10126000CB010E94E708182F682FCE010E94C30807
:10127000BE01812F0E941B10EDCFCB010E94D5082B
:10128000182FF6CFE1E0F0E0DF0102C0AA0FBB1F8C
:101290006A95E2F7BD01DF0102C0AA0FBB1F4A95A4
:1012A000E2F76A2B01C0EE0F2A95EAF7962F9823F2
:1012B000961302C08E2B0895E0958E230895242F57
:1012C000462F682F8091F2010E9442090E94250852
:1012D00008951F93CF93DF93C091F40117E080919D
:1012E000F5018C1304C0DF91CF911F910895D0E0D8
:1012F0001C9FF0011D9FF00D1124EA50FE4F20812C
:101300003181428153816481758186810E94F60713
:101310002196C770E4CF20912E0230912F02409188
:10132000300250913102609132027091330280910B
:1013300034020E94F6070895CF93DF938091340220
:10134000807F09F04DC080913302882309F448C0A2
:10135000E091F4015091F501C0912F02D0912E023D
:10136000609130027091310247E05E17C9F18E2F13
:1013700090E0E49FF0011124EA50FE4F24812223E3
:1013800091F1489FF001499FF00D1124DF01AA500F
:10139000BE4F11962C9111972C1325C02C912D1313
:1013A00022C015962C91159721111DC012962D91D2
:1013B0003C91261B370B283C3105A8F48091340260
:1013C0008F70806180933402E450FE4F80818F7073
:1013D000806180838EE292E00E9486070E94690904
:1013E000DF91CF910895FC013196E770BECF482F71
:1013F0002091F4019091F50157E0291302C080E09B
:10140000089530E0529FF001539FF00D1124EA50EF
:10141000FE4F8181681306C08081481303C0858117
:101420008111EECF2F5F3F4F2770E7CFA4E1B0E0EF
:10143000ECE1FAE00C94B0298C0186E0F801DE01C1
:101440001F9601900D928A95E1F7F8018481E5805D
:101450009EE2A92E92E0B92E9091320291111FC006
:101460008823D1F0EE20A9F0C8010E94DF07F82EF2
:10147000882379F087E0F801D50101900D928A95D3
:10148000E1F7C5010E94C3040E949C090E948B09D8
:101490005FC0C8010E948607FF24F39459C0C08032
:1014A000D18082809380F09033022091300230917D
:1014B0003102A401421B530BFF2009F4F9C0483C40
:1014C000510508F0A7C0882309F442C090912F026B
:1014D00080913402282F207F09F05CC09D1116C036
:1014E00090912E02C91212C0E1104EC08F7080611F
:1014F000809334020E948B098EE292E00E9486075C
:1015000080913402F8018683F12C22C0E1103CC0A6
:101510006D2D8C2D0E94F7096D2D8C2D0E94F709E1
:10152000E82E8111F1CFCF86D88A8F8598890E94C5
:101530001409292F22952F70243078F49F702230BF
:10154000A8F09923B9F0F8019681907F99F4FE2CC8
:101550008F2D6496ECE00C94CC292A5F2F702230FA
:1015600068F0C8010E948607EF2CF1CF992311F093
:10157000882369F3805E883050F3F3CF803F38F3DF
:10158000815F833070F7E3CF809134028160809374
:101590003402BACF9D1113C090912E02C9120FC010
:1015A000E1100DC08683C8010E94860787E0F8011C
:1015B000AEE2B2E001900D928A95E1F767CFC801E3
:1015C0000E94DF07882309F464CFEE2009F461CF7D
:1015D00080913402803288F020912E0230912F02C7
:1015E000398728879B868A86909132029C871D8640
:1015F0008E87CE0108960E94860787E0F801AEE24A
:10160000B2E001900D928A95E1F70E949C090E9438
:101610008B0942CF90913402292F207FA1F4682DAD
:101620009A8A898AA6017A899E2D0E94EC078EE209
:1016300092E00E94860787E0F50111928A95E9F70A
:101640000E948B0961CF882309F482CF80912F02F9
:101650008D1110C080912E02C8120CC0E1100AC07A
:101660009683C8010E94860787E0F50111928A954A
:10167000E9F76ECFC8010E94DF07882309F409CF7C
:10168000EE2009F406CF80913402803208F4B5CF01
:1016900020912E0230912F023A8329839C828B82E3
:1016A000909132029D831E828F83CE010196A3CF3B
:1016B000483C5105B8F5882309F4EECEFE2CEE2007
:1016C00009F4E7CE80912F028D111EC080912E0269
:1016D000C8121AC08091340280FD0DC0982F907FEF
:1016E00051F08683903F09F45ECF982F907F905FF2
:1016F0008F70892B57CF87E0F801AEE2B2E00190FE
:101700000D928A95E1F724CFC8010E94DF0781116D
:1017100074CF80913402816080933402C8010E94AA
:10172000860716CF682D9A8A898AA6017A899E2D06
:101730000E94EC0787E0F50111928A95E9F7A6CEA1
:10174000AEE0B0E0E6EAFBE00C94B92928873987DF
:101750004A875B876C877D878E87CE0108960E94BB
:10176000160A8823B1F06C85662341F028853985F7
:101770004A855B857D858E850E94F60717E08091FE
:10178000F4019091F50189133DC02E96E3E00C948D
:10179000D52987E0FE013896DE01119601900D9261
:1017A0008A95E1F78C85882349F32091F50130E093
:1017B000C9010196877099274091F40148171906CD
:1017C00099F097E0929FD001939FB00D1124AA50F9
:1017D000BE4FFE01319601900D929A95E1F78093EC
:1017E000F5010E946909CACF0E94BF071092F50156
:1017F0001092F40187E0EEE2F2E0DF011D928A959B
:10180000E9F7BCCF819FC00111248A509E4F0E94EE
:10181000160A882309F4B9CFE091F4011E9FF00164
:101820001124EA50FE4F208131814281538164812D
:10183000758186810E94F6078091F40190E00196FF
:10184000877099278093F4019ACF80915D028695E5
:1018500086958695089580915D0287700895909190
:101860005D02977081E009F480E00895809189021B
:10187000089590918902892B80938902089580951B
:101880009091890298239093890208951092890279
:10189000089590918802892B8093880208958095FD
:1018A000909188029823909388020895109288025C
:1018B000089508950E94590C089590915E02292F71
:1018C000282331F08095892380935E020E945A0C70
:1018D000089508950E94690C089590915F02292F40
:1018E0002823281729F0982B90935F020E946A0CF6
:1018F000089590915F02292F282331F08095892344
:1019000080935F020E946A0C089580915F02882391
:1019100029F010925F0280E00E946A0C0895CF9334
:10192000C091890280918802C82B80915F02882330
:1019300031F0C82B0E94451E81110E94850C8C2F0E
:10194000CF910895CF93DF93C0910201D09103010D
:101950000E948F0C8883C0910201D091030148E05E
:1019600050E065E572E0CE010E94F529892B59F01F
:1019700088E0FE01A5E5B2E001900D928A95E1F7BD
:10198000CE010E94D41DDF91CF910895CF93DF93B4
:10199000C0910001D09101010E948F0C8983C091F8
:1019A0000001D091010140E250E065E372E0CE0118
:1019B0000E94F529892B59F080E2FE01A5E3B2E0EF
:1019C00001900D928A95E1F7CE010E94DF1DDF9113
:1019D000CF91089580913201882339F08091F702E8
:1019E00087FF03C00E94C60C08950E94A20C0895B0
:1019F00008950E94F80C08959091F80292FF11C08A
:101A000098E0899F90011124622B60935D020E94EF
:101A1000370880915D028695869586950E94F90C1F
:101A200008950E943708089510925D0280E00E9498
:101A3000F90C089590915D028095892380935D0251
:101A4000282F277069F4891759F09091F80292FFB6
:101A500007C08695869586950E9443080E94140DBE
:101A600008959091F80292FB222720F9281769F037
:101A700080FB92F99093F8028091F7029091F8021E
:101A80000E947A0D82E00E941A0D08958091F8025A
:101A900082FB882780F991E089270E94310D089503
:101AA00081E00E94310D089580E00E94310D08957B
:101AB0006FEF7FEF90E080E00E94472A089590E06A
:101AC00080E00E94132A863E9E4F19F40E946E1CED
:101AD000089580E0089582E090E00E940B2A089526
:101AE00083E090E00E940B2A089584E090E00E9439
:101AF000132A0895BC0184E090E00E94472A0895CB
:101B0000AB01BC018FE090E00E943B2A0895AB013D
:101B1000BC0183E190E00E943B2A089560E070E000
:101B2000CB010E94870D089560E070E0CB010E9418
:101B3000800D0E948E0D0895A8E0B0E0E2EAFDE07D
:101B40000C94BA2966EE7EEF90E080E00E94472A6E
:101B500060E082E090E00E94292A81E08093F30116
:101B600061E083E090E00E94292A60E074E184E073
:101B700090E00E94472A60E086E090E00E94292AD7
:101B80006FEF87E090E00E94292A40E050E0BA0120
:101B900088E090E00E943B2A60E084E290E00E94AE
:101BA000292A60E087E190E00E94292A60E08CE029
:101BB00090E00E94292A60E08DE090E00E94292AAE
:101BC00019821A821B821C821D821E821F82188625
:101BD00048E050E068E170E0CE0101960E94192AC9
:101BE00040E050E0BA0180E290E00E943B2A80E0B1
:101BF0000E94871C0E94B61C0E94940D2896E2E069
:101C00000C94D6290E949C0D0895682F8EE090E0D8
:101C10000E94292A0895A6E0B0E0E1E1FEE00C94DC
:101C2000B8290E940B208C0180918A0290918B022E
:101C30008017910781F019821A820E940B20682F69
:101C400049815A81792F80E090E00E94930410939B
:101C50008B0200938A022696E4E00C94D4290E9419
:101C600037116093A0027093A1028093A202909317
:101C7000A30260939C0270939D0280939E029093B6
:101C80009F020895089508950E94420E08950895B0
:101C90000E94470E089581E0089581E591E10E9438
:101CA00063150E94430E0E94440E08950E945F1324
:101CB0000895089508950E94590E0E945A0E08959D
:101CC0000E9470110E94670408950E9402200E94E1
:101CD00011110E94C61C0E9465130E94B2120E943C
:101CE000600E0E9468150E9477130E94480E0895A6
:101CF000A6E0B0E0EEE7FEE00C94AE290E944B0EA9
:101D000081110CC00E940B0E0E945F130E94CC191F
:101D10000E947A042696EEE00C94CA290E94D512FD
:101D20002CE8822E22E0922E640110E0F601E19070
:101D3000F1906F01812F0E9493111F5F183009F4F9
:101D40004BC0E816F90691F38091A40281FD0E9430
:101D50009C110E94560E782E10E066246394812F09
:101D60000E9493117C01F401A190B1904F018A155A
:101D70009B0561F1A826BF2400E0CC24C394D12C9C
:101D8000C5018C219D21892BC1F07720B1F00983F9
:101D90001A830E940B209C838B836D8221E0C701F4
:101DA0008C219D21892B09F420E049815A816B8186
:101DB0007C818D81922F0E9493040F5FCC0CDD1CDF
:101DC0000C30F1F6F4013297F182E0821F5F183097
:101DD00031F60E942F0E98CFE816F90609F0B4CF1D
:101DE00091CF1F93CF93DF930E942010EC01C11578
:101DF00080E5D807F0F5C11580E4D80708F09CC04D
:101E0000C03ED10520F5CD3CD10508F082C0C83ACE
:101E1000D10578F4C53AD10508F073C0C130D105B9
:101E200019F1209709F1C430D105F0F4D0E0C0E0F9
:101E30001BC0C33CD105D0F7C85AD0E0CC0FDD1F82
:101E4000C459DE4F0990D881C02DD4640DC0C1158E
:101E500080E2D80708F0D1C0C11581E0D80708F0AA
:101E60005AC0C83ED10510F7CE01DF91CF911F9126
:101E70000895C03682E5D80718F5C03482E5D80742
:101E800008F06BC0C03282E5D80708F05FC0C1150A
:101E900082E5D80708F497C02C2F2695269580E276
:101EA000289F900111248C2F8370C1E0D0E002C0E4
:101EB000CC0FDD1F8A95E2F7C22BD32BDD68D4CF80
:101EC000C03A82E5D80760F4C03882E5D80708F444
:101ED00059C0CF71D0E0DC2FCC27C46FD06AC4CFFB
:101EE000C03C82E5D80708F462C0C03E82E5D8074E
:101EF00008F09CCFDC2FCC27CC27DF71C06FD06AD5
:101F0000B3CFC55AD0E0CE55DE4FC881D0E0D06403
:101F1000ABCFD065A9CF8D2F0E94C210182FCE0154
:101F200099270E942010C12FD0E0DC2FCC27CC278E
:101F3000DF71C82BD92B98CFCE0199270E94201092
:101F4000CC27DF70C82BD92BD06A8ECFCF71D0E0D1
:101F5000DC2FCC27C16FD06A87CF2C2F26952695F2
:101F6000277080E2289F900111248C2F8370C1E09C
:101F7000D0E002C0CC0FDD1F8A95E2F7C22BD32B35
:101F8000DC6872CF2C2F26952695277080E2289F3B
:101F9000900111248C2F8370C1E0D0E002C0CC0FDF
:101FA000DD1F8A95E2F7C22BD32BDA685DCF8C2F29
:101FB0008F710E94C210C82FD0E0DC2FCC27CC2715
:101FC000DF71D06251CF8C2F8F710E94C21055E00B
:101FD000D695C7955A95E1F7CF70D0E0DC2FCC2786
:101FE000282F30E084FF05C044E0220F331F4A95BC
:101FF000E1F7C22BD32BD06937CF8D2F8F710E9481
:10200000C210182FCE0199270E942010C12FD0E0B6
:10201000DC2FCC27CC27DF71C82BD92BD2CF462F72
:10202000783030F46C3020F4672F0E943816089511
:1020300090E080E008950E940F100E94F10E089534
:1020400082389105B9F1B0F48133910509F47DC06E
:1020500048F48932910509F46DC08A32910509F47A
:102060007BC008958533910509F45FC089339105DC
:1020700009F10895833E9105D9F138F4803E910528
:1020800029F1823E910579F10895863E9105D9F1B5
:10209000873E910509F43EC0843E910541F52091AB
:1020A000F80221FF24C08091F70284FD19C087EE59
:1020B00090E008952091F702237009F05AC0209112
:1020C000F80223FF14C089E290E008952091F702FE
:1020D00020FD38C03091F80230FF09C024FF43C012
:1020E00090E080E008952091F70222FDF7CF089557
:1020F0002091F70222FD3AC03091F80230FD39C03C
:1021000024FFF5CFEDCF2091F70223FFF0CF24FD80
:10211000E7CFCDCF2091F70223FD2EC03091F802FA
:1021200031FFEECF84EE90E008952091F70225FF75
:10213000DECFC9CF2091F70225FD21C02091F80202
:1021400023FFD5CF89E390E0D2CF2091F70226FF7D
:10215000CECF8AE290E008952091F70226FFC7CF04
:1021600081E390E0089583EE90E0089582EE90E0A0
:10217000089580EE90E0089586EE90E0089585E35E
:1021800090E008959091F70292FF10C041E0282F4F
:102190002471243009F040E031E0282F28712830E4
:1021A00009F030E0431711F02CE0822793FF10C0B4
:1021B00041E0282F2471243109F040E031E0282F3C
:1021C0002871283109F030E0431711F02CE0822704
:1021D0003091F80230FF10C051E0282F21712130DA
:1021E00009F050E041E0282F2871283009F040E044
:1021F000541711F029E0822731FF10C041E0282F49
:102200002171213109F040E031E0282F2871283177
:1022100009F030E0431711F029E0822794FD877E12
:1022200008951092F3021092F4021092F5021092A7
:10223000F6020895CF92DF92EF92FF926B017C013C
:102240000E945F1381110EC00E941720C61AD70A80
:10225000E80AF90AC092F302D092F402E092F50281
:10226000F092F602FF90EF90DF90CF9008950F93D9
:102270001F930E945F13882329F00E9417201F914B
:102280000F9108950E9417200091F3021091F4021B
:102290002091F5023091F602600F711F821F931F8B
:1022A000EECF80E008950E94580D08950E94D51247
:1022B0002FEF86E791E0215080409040E1F700C089
:1022C00000000E94D51280E00E94931180FF04C09C
:1022D0000E9453110E94722008950E945611089581
:1022E0000E945F0D811102C00E94020E0E946B0DC0
:1022F0008093A4020E94750D9093F8028093F702D8
:102300000E946D110E94700D0E940A088091F201D6
:102310000E942208089508950E948B11089508953F
:102320000E948F110895E82FF0E0EE0FFF1FE65F87
:10233000FC4F808191810895089580EA8A95F1F794
:10234000089500C008950E949D11089508950E9467
:10235000A6110895A8E0B0E0E0EBF1E10C94B629F5
:102360000E945F13F82E60911A03882309F446C077
:1023700058E0E52E8E010F5F1F4FF8018E2D119250
:102380008A95E9F7862F90E0880F991FB801865F3C
:102390009C4F0E9485138823C9F08091F90290E038
:1023A000880F991F48E050E0B801865F9C4F0E945B
:1023B000F52921E02093A502892B91F4F12C0E94AC
:1023C00090118F2D2896E6E00C94D2298091A502D9
:1023D0008823A1F3F8011192EA94E9F71092A5027B
:1023E000A091F902B0E0AA0FBB1FA65FBC4F88E026
:1023F000F80101900D928A95E1F7E1CF70E0660F48
:10240000771F665F7C4F8091F90290E0880F991FDB
:10241000865F9C4F0E940C140E94A711D2CFF894A3
:10242000E82FE295EF70F0E031A1282F2F7081E0C6
:1024300090E001C0880F2A95EAF7982F9095932392
:1024400091A392A1892B82A378940895CF93DF93CF
:1024500084EF0E940F1285EF0E940F1286EF0E94F8
:102460000F1287EF0E940F12C5EAD1E089918F3FCA
:1024700011F00E940F1281E0C13BD807B9F7DF913C
:10248000CF910895AF92BF92DF92EF92FF920F9398
:102490001F93CF93DF938C01D62EC62FD0E0CE01B1
:1024A0008F549E4F7C01FC0120812F3F09F44DC0C9
:1024B000F894E22FE295EF70F0E031A12F7081E007
:1024C00090E001C0880F2A95EAF7932F982B91A3EB
:1024D00092A18095892382A378940E94A111E5EAB4
:1024E000F1E041EB51E021E030E0B12CA12C619111
:1024F0006F3FA9F1A62FA295AF70B0E090968C9196
:1025000090E06F7002C0959587956A95E2F780FD1F
:1025100026C0C901A82AB92A220F331F4E175F0708
:1025200031F7F70180818F3F11F00E940F1261E0B7
:10253000A114B10409F460E08D2D0E94A311CC0F09
:10254000DD1FC00FD11FB982A882DF91CF911F91EB
:102550000F91FF90EF90DF90BF90AF90089590E0C3
:1025600080E0D8CF809104018091040194E0811132
:1025700090E090931A0384E0891B8093F9020E94F3
:10258000261280E1EAE0F3E0DF01982F1D929A9590
:10259000E9F7EAEFF2E0DF011D928A95E9F784E0BE
:1025A0000E9415130E948C110895A0E1B0E0EBED9C
:1025B000F2E10C94B7298E010F5F1F4F80E1F80103
:1025C00011928A95E9F7F12C6F2DC8010E944212F1
:1025D000F394F4E0FF12F8CF40E150E0B8018AEF45
:1025E00092E00E94F52921E0009709F420E0892B70
:1025F00041F080E1F801AAEFB2E001900D928A95D6
:10260000E1F760911A0370E0660F771F665F7C4FF9
:1026100044E08AEF92E00E941613182F0E94AA113C
:10262000812B6096E5E00C94D3290895B0E0A0E0FA
:10263000ECE1F3E10C94B4296C017B01042FC22F6F
:10264000222379F081E08093A8020E940B209093CE
:10265000A7028093A60280E0CDB7DEB7E8E00C9435
:10266000D029D091A802DD23B1F38091A6029091E8
:10267000A7020E942320059770F310E0000F111F9E
:10268000A801B601C7010E94F529892B31F0A801E4
:10269000B601C7010E94022ACD2F1092A8028C2FEA
:1026A000DBCFCF930E947C29C82F811102C00E94EA
:1026B00077298C2FCF9108958091AC020895809155
:1026C000AB0208950E945F1308950E9451138093F6
:1026D000AB020E9462138093AC020E945C13809351
:1026E00004010E945F1381110E94BB1308950E9490
:1026F0005F13811102C00E94BE13089581E0909182
:10270000AD029A3008F080E008950F931F93CF93A5
:10271000DF93EC018B018091AD028A30B8F4B801EF
:10272000CE010E940914C82F811122C08091AD02F0
:102730008F3FB9F40E940B209093AA028093A902C4
:102740008C2FDF91CF911F910F9108958091A90255
:102750009091AA020E942320843F914000F7C0E09C
:10276000EFCF8F5F8093AD028A3020F7C1E0E8CFD2
:102770001092AD02E5CF0E94F92008950E94FC203E
:102780000895B0E0A0E0E7ECF3E10C94B5297901FD
:10279000C82F880FDD0B41155105A9F0FE0193E00C
:1027A000EE0FFF1F9A95E1F7EB5FFE4F818192815B
:1027B00082559D4F208130E04217530708F49A015B
:1027C000A9010E94022ACE010E94E521D82E882369
:1027D000D1F001151105B9F083E0CC0FDD1F8A950A
:1027E000E1F7FE01EB5FFE4F438150E00417150750
:1027F00008F4A801CB5FDE4F6C817D8162557D4F6F
:10280000C7010E94022A8D2DCDB7DEB7E7E00C94F8
:10281000D1290E94FB1408950E9412150895A4E086
:10282000B0E0E5E1F4E10C94B8296091CB0270913D
:10283000CC028091CD029091CE020E94322011E014
:10284000643671058105910518F10E9437116E5F9C
:102850007F4F8F4F9F4F69837A838B839C8310E0D8
:1028600000E030E020E044E050E0BE016F5F7F4FC9
:1028700082E00E94C113182F882351F00E94172074
:102880006093CB027093CC028093CD029093CE02E2
:10289000812F2496E4E00C94D429B0E0A0E0E3E595
:1028A000F4E10C94B2297C015B016A010E947E1361
:1028B00001E010E0882311F00AE010E0C1E0D0E070
:1028C000B501C701F6010995811104C021960C17C5
:1028D0001D072CF4CDB7DEB7EAE00C94CE29CC9FCF
:1028E0009001CD9F300D300D112490E080E045E344
:1028F0004A95F1F70000019682179307C1F7E0CFE0
:10290000A9E0B0E0E6E8F4E10C94B2297B01C090C4
:10291000B501D090B60101E010E09E01275F3F4F66
:1029200050E040E070E060E080E00E94C113182FAA
:10293000882309F448C056018FEFA81AB80A60919D
:10294000C7027091C8028091C9029091CA020E9488
:102950003220643671058105910568F108E010E0C8
:102960009E012F5F3F4F50E040E070E060E081E06B
:102970000E94C113D82E68E070E0C5010E9469155D
:1029800011E09985981310E01D2141F10E94172054
:102990006093C7027093C8028093C9029093CA02E1
:1029A00088E0FE013196AFEBB2E001900D928A957E
:1029B000E1F711E013C068E070E0C5010E946915FD
:1029C00099858913CBCF88E0F6013196DE01119607
:1029D00001900D928A95E1F71111E2CF88E0EFEBBB
:1029E000F2E0D70101900D928A95E1F7812F2996A7
:1029F000EAE00C94CE290F931F93CF93DF93EC0161
:102A00008B0140E854E10E944D14882331F04FE0DF
:102A100054E1B801CE010E944D14DF91CF911F9176
:102A20000F9108950F931F93CF93DF93C091B5013A
:102A3000D091B601CE01019628E0FB01DC010190A6
:102A40000D922A95E1F768E070E00E94691588838D
:102A500069857A858B859C850091BB021091BC02AB
:102A60002091BD023091BE02601771078207930763
:102A700051F06093BB027093BC028093BD029093AF
:102A8000BE020E941A11DF91CF911F910F910895FC
:102A90000E94D1230E94650E0E94DE2308950E94A9
:102AA000E3230E94780E0E94FD2308950E94A41F34
:102AB0000E94B7230E944D0E0E9448150E944F1598
:102AC0000E945B0EFBCF9093C7018093C6010895CF
:102AD0000895FC01680F791F8FEF91E36E177F0750
:102AE00009F408952191822728E030E087FF06C08D
:102AF000880F892721503109C9F7F0CF880FFACF05
:102B000084E0089550E0440F551F98E1699F400DFF
:102B1000511D112490EC899F400D511D1124CA01B3
:102B2000899608950F931F93CF93DF938430C8F451
:102B30006830B8F44C30A8F40E9482158C010E94D1
:102B40000B2AC82FD0E0DC2FCC27C80101960E94A9
:102B50000B2A9E01282BC901DF91CF911F910F9164
:102B6000089590E080E0F8CF0F931F93CF93DF9309
:102B7000122F032F843078F4683068F44C3058F406
:102B80000E948215EC01602F0E94292A612FCE013C
:102B900001960E94292ADF91CF911F910F910895EC
:102BA0001F93CF93DF93D0E0C0E011C0412F6C2F73
:102BB0008D2F0E9447039C01412F6C2F8D2F0E9467
:102BC000B4151F5F1C3091F7CF5FC83011F010E0D3
:102BD000EDCFDF5FD43041F7DF91CF911F910895A2
:102BE000EF92FF920F931F93CF93DF93EC018A0133
:102BF0007C01E60EF71ECE018996CE15DF0529F47D
:102C0000CDB7DEB7E6E00C94D229C11523E0D20798
:102C100040F40E940B2AF80180830F5F1F4F21961A
:102C2000EACFF8011082F9CFB0E0A0E0EAE1F6E1E6
:102C30000C94B4297C016A018C01060F171FEC016A
:102C4000CE018996C017D10729F4CDB7DEB7E8E0E9
:102C50000C94D029C11523E0D20740F4FE01EE19EF
:102C6000FF09EC0DFD1D60810E94292A2196E8CF05
:102C7000843038F4683028F44C3018F40E949215EF
:102C8000089590E080E0089580E1089587ED90E058
:102C90000895EF92FF920F931F93CF93DF93EC0170
:102CA0008A017C01E60EF71ECE01875D9C4FCE1592
:102CB000DF0529F4CDB7DEB7E6E00C94D229C73D95
:102CC000D10540F40E940B2AF80180830F5F1F4F4B
:102CD0002196EACFF8011082F9CFB0E0A0E0E3E757
:102CE000F6E10C94B4297C016A018C01060F171FD0
:102CF000EC01CE01875D9C4FC017D10729F4CDB7F9
:102D0000DEB7E8E00C94D029C73DD10540F4FE01C0
:102D1000EE19FF09EC0DFD1D60810E94292A219604
:102D2000E8CFCF93DF93C9E2D3E060E0CE010E9409
:102D3000292A2196C11584E0D807B9F7DF91CF91F0
:102D40000895A8E0B0E0E7EAF6E10C94B229F82E85
:102D50008FE08F1508F46EC08FEF93E00E940B2A6E
:102D6000811168C009E213E0F11035C0FE0131960F
:102D70006F0188E011928A95E9F77801FFEFEF1A69
:102D8000FF0AC8010E940B2A89831A82882309F44A
:102D900051C08130D1F4580182E0A80EB11CC701A6
:102DA0000E940B2A8A83882309F444C09FEF980F5E
:102DB0009330F0F4780193E0E90EF11CC5010E9414
:102DC0000B2A8B838823B1F11C8260E0C6010E942C
:102DD000171B8701D2CF011594E0190759F1C801DB
:102DE0000E940B2A811101C0FA940F5F1F4FBCCFC4
:102DF0007501843051F702E010E07501EFEFEE1A33
:102E0000FE0AC5010E940B2AF601E00FF11F808324
:102E1000882381F08C3741F4E2E0F0E0EC0FFD1FF5
:102E2000E00FF11F1082D1CF0F5F1F4F5701073006
:102E3000110519F72896EAE00C94CE29CF93DF9379
:102E4000EB0186319C4711F50E94360C9D81992338
:102E500099F08A7A91E009F490E09093CF02811181
:102E600009C089E20E94F01E0E94EA0C80E0DF9116
:102E7000CF91089585E3F6CF8091CF02811104C0F0
:102E800089E20E94071FF0CF85E3FBCF81E0EFCFFF
:102E9000CF93DF93EC01FB018581882309F4D2C035
:102EA0009E0130572332310508F0B2C00E94750DE3
:102EB0009093F8028093F702FE01E150F047E2326E
:102EC000F10520F4E559F54D0C949D298091F70208
:102ED00081608093F70293C08091F80288608093AC
:102EE000F8028DC08091F7028260F3CF8091F702E3
:102EF0008460EFCF8091F7028860EBCF8091F80279
:102F00008160EDCF8091F8028260E9CF8091F70275
:102F10008061DFCF8091F7028062DBCF8091F70282
:102F20008064D7CF0E94BF078091F7028068D1CF1D
:102F30008091F7028C60CDCF8091F8028360CFCF73
:102F40008091F7028E7FC5CF8091F802877FC7CF2F
:102F50008091F7028D7FBDCF8091F7028B7FB9CF33
:102F60008091F702877FB5CF8091F8028E7FB7CF2F
:102F70008091F8028D7FB3CF8091F7028F7EA9CF29
:102F80008091F7028F7DA5CF8091F7028F7BA1CF33
:102F90000E94BF078091F7028F779BCF8091F70245
:102FA000837F97CF8091F8028C7F99CF8091F70231
:102FB00082FB992790F921E0922790FB82F990FB00
:102FC00083F987CF8091F802982F909591708E7F2A
:102FD000892B90FB81F983CF9091F702892F8F7B0A
:102FE00096FF806476CF0E94BF079091F702892FE9
:102FF00097FB87F980586DCF81E00E94050E809184
:10300000F7029091F8020E947A0D0E94BF0780E0BB
:10301000DF91CF91089580E0F0CF9091F702892F52
:103020008F7E94FF806155CF9091F702892F8E7F1C
:1030300090FF81604ECF9091F802892F877F93FF98
:1030400088604DCF81E0E4CF282F35EB2303C0010A
:10305000112497FF04C080589109892F0895805842
:103060009F4FFBCF8091D60280FF0DC0609122015F
:1030700070E0660F771F6038710570F56115710596
:1030800069F1862F089581FF07C06091220184E0D5
:10309000689FB0011124EFCF6091220182FD0AC028
:1030A0008091D5028823A9F020912101609122010D
:1030B000821710F088E0ECCF869FC001112433E026
:1030C000880F991F3A95E1F7622F70E00E948929D5
:1030D000D2CF68E070E0D5CF8FE7089581E0089502
:1030E0008091D60280FF0CC060911E0170E0759542
:1030F0006795759567956115710549F1862F089556
:1031000081FF06C060911E0170E075956795F3CF51
:1031100060911E0182FD0BC09091D4029923A1F011
:1031200060911D0180911E01961738F0682F70E0A4
:103130006038710500F38FE70895899FC00111245D
:1031400070E00E948929F4CF61E070E0D7CF81E080
:1031500008959091D9022091DA02922B2091DC02FD
:10316000922B2091DB02922B31F098E09093D502C4
:1031700091E09093D4028D3C31F40E9432188195F5
:103180008093DA0208958E3C19F40E943218F8CF29
:103190008F3C31F40E94321881958093D9020895B2
:1031A000803D19F40E943218F8CF893D29F40E941D
:1031B00070188093DB0208958A3D21F40E947018F4
:1031C0008195F7CF8B3D31F40E94701881958093E3
:1031D000DC0208958C3D19F40E947018F8CF9FE22C
:1031E000980F983070F4815D990B21E030E001C0B8
:1031F000220F8A95EAF78091D802822B8093D80219
:1032000008958D3D31F48091D60281608093D6027D
:1032100008958E3D21F48091D6028260F7CF8F3DD4
:10322000B9F78091D6028460F1CF4091D9028D3CEC
:1032300059F48091DA0287FF0DC01092DA02411131
:103240000BC01092D50208C08E3C81F48091DA0246
:1032500018169CF3442381F08091DB029091DC02EC
:10326000892B09F05AC01092D40208958F3C49F47A
:1032700047FFF0CF1092D9028091DA028111ECCF92
:10328000E0CF803D19F41416ACF3E4CF9091DB024B
:10329000893D29F41916F4F61092DB02DBCF8A3D42
:1032A00019F497FFD7CFF8CF9091DC028B3D29F42A
:1032B00097FFD0CF1092DC02CDCF8C3D19F41916B8
:1032C000CCF3C8CF9FE2980F983090F4815D990BB2
:1032D00021E030E0B90102C0660F771F8A95E2F75E
:1032E000CB0180959091D80289238093D802B2CFE8
:1032F0008D3D31F48091D6028E7F8093D602AACF85
:103300008E3D21F48091D6028D7FF7CF8F3D09F05D
:10331000A1CF8091D6028B7FF0CF08950E940B2021
:103320009C019091D9028091DA02982B21F0309380
:10333000D3022093D2029091DB028091DC02982B81
:1033400021F03093D1022093D00287ED92E00E94C9
:10335000ED1D089586E0E7EDF2E0DF011D928A950C
:10336000E9F71092D5021092D4021092D602089575
:10337000FC01828181110EC0838181110BC0848187
:10338000811108C091E08581811101C090E0892FF1
:103390008170089581E0FCCFA6E0B0E0E2EDF9E1B4
:1033A0000C94B92986E0E7EDF2E0DE011196019078
:1033B0000D928A95E1F71092D9021092DA021092DA
:1033C000DB021092DC028B819C81892B89F0809139
:1033D000D2029091D3020E942320AC019091D50299
:1033E0009923C9F1809123018417150608F440C080
:1033F0008D819E81892B91F08091D0029091D10294
:103400000E942320AC019091D402992309F46AC050
:1034100080911F018417150608F472C0BE016F5F0A
:103420007F4F87ED92E00E94381F811105C087ED24
:1034300092E00E94B81981110E948E1986E0FE0167
:103440003196A7EDB2E001900D928A95E1F72696AC
:10345000E3E00C94D529209124018AE0289F900173
:1034600011242417350720F69F5F9093D50202C0E0
:103470009F3FD1F71B81112359F00E9432189FEF13
:1034800011160CF491E0899F802D11248093D902AC
:103490001C81112359F00E9432189FEF11160CF471
:1034A00091E0899F802D11248093DA028091D902C6
:1034B000882309F49DCF1091DA02112309F498CFE3
:1034C0000E942418882351F08093D902812F0E94F2
:1034D0002418882329F08093DA028ACF81E0F4CF80
:1034E00081E0F9CF209120018AE0289F90011124EA
:1034F0002417350708F092CF9F5F9093D40202C043
:103500009F3FD1F71D81112359F00E9470189FEF42
:1035100011160CF491E0899F802D11248093DB0219
:103520001E81112359F00E9470189FEF11160CF4A0
:1035300091E0899F802D11248093DC028091DB0231
:10354000882309F46BCF1091DC02112309F466CFB4
:103550000E942418882351F08093DB02812F0E945F
:103560002418882329F08093DC0258CF81E0F4CF1F
:1035700081E0F9CFB0E0A0E0E0ECFAE10C94B529ED
:10358000E82FF0E0E455FC4FD490282F269526959F
:10359000269530E0F901E45BFB4F0491877010E061
:1035A000082E02C0159507950A94E2F701701127BD
:1035B000F901E45CFB4FE490F12C082E02C0F59475
:1035C000E7940A94E2F791E0E922FF24F901E45D2F
:1035D000FB4FC491D0E002C0D595C7958A95E2F71C
:1035E000C170DD270115110519F081EE0E94D60486
:1035F000E114F10419F086EE0E94D6048D2D0E948C
:103600006A05E114F10419F086EE0E941F05011508
:10361000110519F081EE0E941F05CD2B19F08CE2E7
:103620000E946A05CDB7DEB7E7E00C94D129EF928E
:10363000FF920F931F93CF93DF93EC01162F0AE0B5
:103640008881882309F454C0813009F04EC08981F3
:10365000813099F47E0122E0E20EF11C8A810E9401
:103660006A05E7012196812F815050F3EFE9FFE0D1
:103670003197F1F700C00000F7CF823041F47E01AE
:1036800082E0E80EF11C8A810E94D604EACF8330E2
:1036900041F47E01E2E0EE0EF11C8A810E941F05DA
:1036A000E0CF843011F02196DDCF2A81229690E080
:1036B00080E0AE014F5F5F4F2053330B2A3031055E
:1036C00048F0019778F2EFE9FFE03197F1F700C099
:1036D0000000F7CF089FB001099F700D1124C901A8
:1036E000860F971F2981EA01E4CF0E94BA1ABACF48
:1036F000CDB7DEB7E6E00C94D2290F931F93CF939A
:10370000DF93C42FD22FFC0185818823C9F0409319
:10371000DF020E940B209093DE028093DD0280E2A4
:103720008C0F883040F4C77081E001C0880FCA95C3
:10373000EAF70E947305DF91CF911F910F910895D1
:103740001091DF02141332C08091DD029091DE02ED
:103750000E942320883C910548F5C0E2CD0F1D173B
:10376000B9F080E2810F883040F4177081E001C029
:10377000880F1A95EAF70E947A05C83048F481E06C
:103780009D2F977001C0880F9A95EAF70E947305E4
:10379000802F0E946A05C83070F6D77081E001C0A2
:1037A000880FDA95EAF70E947A05C5CF80E28C0F80
:1037B000883008F6C77081E001C0880FCA95EAF723
:1037C000F2CF0F93DB0188519C4787309105A0F51C
:1037D000FC01E357F54D0C949D2906E221EE41EEE4
:1037E0006AE17CE7CD010E947D1B80E00F91089586
:1037F00007E225EE45EE6BE17CE7F4CF06E221EE31
:1038000040EE68E17CE7EECF07E225EE44EE69E1A9
:103810007CE7E8CF06E221EE42EE6CE17CE7E2CF06
:1038200007E225EE46EE6DE17CE7DCCF08E221E021
:1038300045EE6EE17CE7D6CF15968C91882319F082
:103840001092DF02D3CF81E0D1CF1F93CF93DF93CC
:1038500087372CE7920759F0C1E088379C47E1F49D
:10386000FB01C581CC2371F10E94681C06C0FB01DD
:10387000C581CC23B1F00E94651C0E9437080E94CC
:103880006B1CD82F0E94681CC82F0E94651C4D2FEE
:103890006C2F0E945F09C0E08C2FDF91CF911F91A8
:1038A00008950E94651C0E9443080E946B1C182FFB
:1038B0000E94681CD82F0E94651C412F6D2F0E940A
:1038C0005F09EACF0E94681CEECF8091270108951E
:1038D00080912601089580912501089585E290E068
:1038E0000E940B2A853289F486E290E00E940B2A1E
:1038F000843059F487E290E00E940B2A91E08330F3
:1039000009F090E0892F8170089580E0FCCFCF937B
:10391000C82F6FEF811165E285E290E00E94292AAD
:103920006FEFC11164E086E290E00E94292A6FEFF8
:10393000C11163E087E290E00E94292ACF910895A7
:10394000089588E290E00E940B2A682F70E090E0D2
:1039500080E008950895CF93C62F0E94AA1C6C2F73
:1039600088E290E00E94292ACF91089580E00E9489
:10397000871C60E070E0CB010E94AB1C0E94D01558
:103980000E94911681E00E94871C08950E94A01C4D
:103990000E94A11C0E94AA1C0E946E1C811102C0E0
:1039A0000E94B61C089508959C01FB01858188231F
:1039B00051F0A90157574038510530F4822F0E9429
:1039C000A11680E0089581E008952FEFFC01208387
:1039D00008950E94E51C089580E00895B0E0A0E0FD
:1039E000E4EFFCE10C94B429EC01C62E0E94EC1C1F
:1039F000811110C0E881E150E331B8F4F0E0EC56F9
:103A0000F54D0C949D2919828CE08A836C2DCE0192
:103A10000E94AB22CDB7DEB7E8E00C94D0298981B3
:103A20008230C1F028F4813061F08FEF8883EECFCF
:103A3000833099F08430C9F71A821B821C821D8260
:103A4000E5CF0E9417200E94A3296A837B838C8381
:103A50009D83DCCF0E94A11CF6CF8A81082F10E045
:103A60007E019EE0D92ED80E0830110578F6802F01
:103A70000E949311F701938384830F5F1F4FF2E03D
:103A8000EF0EF11CD012F0CFC1CF8981823031F01E
:103A9000853059F68A810E94D31CB8CF6A817B8118
:103AA0008C819D810E94A3290E94AB1CAFCF4B81CA
:103AB0006A8189810E9492159827892798279D837A
:103AC0008C83A4CF2C813D813227232732274B8141
:103AD0006A8189810E94B41599CF0E94D01596CF32
:103AE0006C2DCE010E94E91C91CF0E94441689835F
:103AF0008DCF0E9446169827892798279A83898315
:103B000085CF6B8170E089819A81AE014C5F5F4FF8
:103B10009827892798270E94491678CF6B8170E0F3
:103B200089819A81AE014C5F5F4F9827892798273A
:103B30000E946D166BCF0E94911668CF0E9480156F
:103B4000D6CF6B8170E089819A81AE014C5F5F4F67
:103B50009827892798270E94F01558CF6B8170E02D
:103B600089819A81AE014C5F5F4F982789279827FA
:103B70000E9414164BCF9093E6028093E5020895BD
:103B80000E945F13811103C08091E0020895E091CB
:103B9000E502F091E602309729F00190F081E02DE6
:103BA0000995089580E00895E091E502F091E6021C
:103BB000309721F00280F381E02D09950895E0917E
:103BC000E502F091E602309739F026E0DC012C9313
:103BD0000480F581E02D09950895E091E502F091CA
:103BE000E602309739F022E0DC012C930680F78161
:103BF000E02D09950895A3E0B0E0E1E0FEE10C942A
:103C0000BA292091E3023091E40228173907A1F084
:103C10009093E4028093E302E091E502F091E602E2
:103C2000309751F023E029839B838A830084F185B8
:103C3000E02DCE01019609952396E2E00C94D62959
:103C4000A3E0B0E0E6E2FEE10C94BA292091E102A3
:103C50003091E20228173907A1F09093E202809395
:103C6000E102E091E502F091E602309751F024E0A4
:103C700029839B838A830084F185E02DCE01019600
:103C800009952396E2E00C94D62920910201309107
:103C900003012E5F3F4F80913201882379F080919C
:103CA000F70287FF0BC020910001309101012E5FC8
:103CB0003F4F9EE180E0915018F4089596E0FACFCE
:103CC000F90141919F014423B1F38F5FF4CF882321
:103CD00021F190913201992311F19091F70297FF10
:103CE0001EC0E82FE695E695E695EE31B0F42091FA
:103CF000000130910101E20FF32FF11D228130E02C
:103D0000877041E050E002C0440F551F8A95E2F7EA
:103D10002423352381E0232B91F480E00895209122
:103D2000020130910301F9013296285F3F4F9191D2
:103D3000981721F0E217F307D1F7EFCF81E008954C
:103D40009C01FC0132969FEF80E04191461751F0B3
:103D50009F3F19F4411101C0982F8F5F8630A9F75A
:103D60009F3F09F40895290F311D97FD3A95F901F8
:103D700062830895FC01329608962191261303C0B0
:103D8000DF0111971C92E817F907B9F70895E62F9C
:103D9000E695E695E695EE3168F4E80FF92FF11D0A
:103DA000677021E030E001C0220F6A95EAF7828156
:103DB000822B82830895E62FE695E695E695EE310F
:103DC00070F4E80FF92FF11D677021E030E001C0B9
:103DD000220F6A95EAF7209582812823228308958D
:103DE000682F80913201882359F08091F70287FF74
:103DF00007C080910001909101010E94C71E0895A3
:103E000080910201909103010E94A01E0895682FE5
:103E100080913201882359F08091F70287FF07C013
:103E200080910001909101010E94DB1E0895809114
:103E30000201909103010E94BA1E089580913201FF
:103E4000882379F08091F70287FF0BC0E091000191
:103E5000F091010132968EE1DF011D928A95E9F71A
:103E60000895E0910201F0910301329686E0F4CFCB
:103E7000DC01FB0111969C9111978181981322C05E
:103E800012968C911297882319F0928189131AC087
:103E900013968C911397882319F09381891312C07C
:103EA00015968C911597882319F0958189130AC06E
:103EB00014969C91992321F081E02481291303C059
:103EC00080E001C081E08170089508950E94651F1F
:103ED0000895811106C081E08093E7020E94661F69
:103EE000089582E0F9CF83E08093E7020E94661F85
:103EF00008950E94691F089581E08093E7020E945F
:103F0000661F08950E947C1F0895089508950E94D9
:103F1000861F0895089508950E94851F0895CF93E0
:103F20000E948A1F0E94D5120E948B1FC0E08C2F16
:103F30000E949311892B31F4CF5FC830C1F780E024
:103F4000CF91089581E0FCCF85B7806885BF85B7A4
:103F5000806885BF08951F921FB61F9211248F930A
:103F60009F93AF93BF938091E802811113C080911A
:103F70001B0390911C03A0911D03B0911E03419659
:103F8000A11DB11D80931B0390931C03A0931D03DF
:103F9000B0931E03BF91AF919F918F911F901FBE51
:103FA0001F90189580912303843031F10E944A04B8
:103FB0001092E80288E190E020E40FB6F894A8950A
:103FC000809360000FBE2093600083B7817F846080
:103FD00083BF83B7816083BF7894889583B78E7FD2
:103FE00083BF0FB6F894A895809160008861809394
:103FF0006000109260000FBE08950E94BF070E94EB
:104000004F04089582E084BD93E095BD9AEF97BD7B
:1040100080936E0008952FB7F89480911B039091C0
:104020001C03A0911D03B0911E032FBF08952FB74D
:10403000F89460911B0370911C0380911D03909173
:104040001E032FBF08959C014FB7F89480911B0366
:1040500090911C03A0911D03B0911E034FBF821BC2
:10406000930B0895CF92DF92EF92FF922FB7F894BF
:10407000C0901B03D0901C03E0901D03F0901E0322
:104080002FBFA7019601261B370B480B590BCA01FE
:10409000B901FF90EF90DF90CF90089578941F9230
:1040A0001FB61F9211248F939F93AF93BF9380915C
:1040B0001B0390911C03A0911D03B0911E03019658
:1040C000A11DB11D80931B0390931C03A0931D039E
:1040D000B0931E03BF91AF919F918F911F901FBE10
:1040E0001F90189581E08093E00080E28093D800D3
:1040F0001092C9008FE19EE40197F1F700C0000023
:1041000087E090EBDC0180932C0390932D03A09328
:104110002E03B0932F0388E19CE00FB6F894A89586
:10412000809360000FBE90936000FFCF88E19CE019
:104130000FB6F894A895809360000FBE909360002E
:10414000FFCF8EE1489B02C08150E1F7489BFECF34
:104150000895589880E28A95F1F7589A0895FC01DD
:104160003BE03A95F1F798E020E080E031E040E173
:104170004A95F1F7880F489B02C08160232742E0EF
:104180004A95F1F7000040E14A95F1F7915079F72F
:1041900090E19A95F1F799B132E03A95F1F7000084
:1041A00040E14A95F1F7917092272081920F908318
:1041B0000895A1E0B0E0EFEDF0E20C94B629198289
:1041C0008C017C01E60EF11C0E151F0541F481E007
:1041D0009981911180E02196E6E00C94D2290E9409
:1041E000A120CE0101960E94AF20F80181938F019A
:1041F000EBCF509A589A08955098589AE89AE9E661
:10420000F0E080818C7F808308956150770B91E08E
:1042100001C0990F6A95EAF720E031E0911108C0DA
:10422000222391F0589A80E28A95F1F758980895E0
:10423000492F482339F0589A232740E24A95F1F74D
:104240009695ECCF5898F9CF5898EDCFFF920F93F1
:104250001F93CF93DF93EC018C01060F111DC01744
:10426000D10729F4CDB7DEB7E5E00C94D329F99056
:104270000E94A92068E08F2D0E940521F0CF1F9297
:104280000F920FB60F9211240F931F932F933F930A
:104290004F935F936F937F938F939F93AF93BF934E
:1042A000EF93FF93CF93DF930F92CDB7DEB71982D1
:1042B0000E94A120CE0101960E94AF20082F0695F2
:1042C00006950695282F22952570902F9570290F19
:1042D000922F937026952695920F98279770898133
:1042E000982B09F05CC0043008F059C080E18A9531
:1042F000F1F7589A509A82E08A95F1F700C05898E1
:1043000088E0089F80011124D801AB5FBE4F16964C
:10431000ED91FC9117973097A9F06091B5017091DC
:10432000B60114962D913C911597260F371F1196C3
:104330008D919C911297680F791F13964C9113974A
:104340008C910995F801EB5FFE4F6381662351F074
:104350002091B5013091B60184819581820F931F20
:104360000E9426210E94A92080E18A95F1F75898A1
:104370005098589A80E18A95F1F7F801EB5FFE4F6B
:104380006081662351F02091B5013091B6018181A1
:104390009281820F931F0E94D9200E94A1200F902A
:1043A000DF91CF91FF91EF91BF91AF919F918F914D
:1043B0007F916F915F914F913F912F911F910F913D
:1043C0000F900FBE0F901F9018950F931F93CF93D0
:1043D000DF93EC0104970CF04CC0F894509A589875
:1043E00085E08A95F1F700009C2F969595708C2FAB
:1043F0008570980F892F83709695969523E0CC0F42
:10440000DD1F2A95E1F7980F8E01092B0E94A92044
:1044100000C068E0802F0E94052180E18A95F1F7B5
:104420005098589A489B1EC087E090E048991CC05D
:10443000FE01EB5FFE4F63816623F9F02091B50129
:104440003091B60184819581820F931F0E94D920FB
:10445000811113C0509A589A7894DF91CF911F918F
:104460000F91089500C0DECF019729F4509A589A11
:10447000789480E0F2CF00C0D9CF0E94A12080E2E2
:104480008A95F1F75898509A80E18A95F1F7CB5FB9
:10449000DE4F6881662351F02091B5013091B6015D
:1044A00089819A81820F931F0E9426210E94A92050
:1044B000789481E0D2CF8091F10208959B01BA01F6
:1044C000909123039430E9F48F708093E9009FEF7B
:1044D0008091E800915085FD06C085ED8A95F1F741
:1044E00000009111F5CF8091E80085FF0AC050E0EF
:1044F00040E0C9010E94A1248091E8008E7780935A
:10450000E800089543E050E0BC0184E00E945E2290
:10451000089546E050E0BC0184E00E945E220895C8
:1045200040E250E0BC0184E00E945E220895CF93F7
:10453000DF93EC0148E050E0BC0181E00E945E2284
:1045400088E0FE01A9EEB2E001900D928A95E1F7B4
:10455000DF91CF910895603231F440E250E0BC0128
:1045600082E00E945E22089580912203811109C099
:104570000E9480260E94DD268091E2008460809364
:10458000E20008951092220308950E947C1F08956E
:1045900060911F0381E0611101C080E00E94731FE0
:1045A00008959091230381E0943009F080E06091B8
:1045B0001F030E94791F089542E061EC81E00E9490
:1045C000FC2542E261EC84E00E94FC2542E261ECC1
:1045D00082E00E94FC2542E260EC83E00E94FC2520
:1045E0009091230381E0943009F080E060911F03F3
:1045F0000E94691F089580912503833009F463C0E8
:1046000030F48130E1F1823009F4A0C008958A309D
:1046100009F48CC08B3009F471C0893009F052C0A4
:1046200080912403813209F04DC08091280390913C
:104630002903009719F0029709F044C08091E8001F
:10464000877F8093E8008091E80082FF37C09091D7
:10465000F3008091F200029731F48091F1008130F3
:1046600011F0863021F48091F1008093F102809165
:10467000E8008B778093E8000E94302623C0809169
:104680002403813AF9F48091E800877F8093E80061
:104690008091280390912903892B61F468E089EEC9
:1046A00092E070E00E943F258091E8008B77809334
:1046B000E800089560E090E080E0F3CF809123036C
:1046C0008111C1CF089580912403813AD9F7809157
:1046D000280390912903892BA9F78091E800877F0F
:1046E0008093E8008091E80080FFFCCF8091320148
:1046F0008093F1008091E8008E77BCCF80912403F5
:10470000813201F78091280390912903892BD1F6FA
:104710008091E800877F8093E8000E943026809196
:104720002603809332010E94BF07089580912403DD
:10473000813241F68091E800877F8093E8000E94F3
:104740003026809127038093F202089580912403FC
:10475000813A09F0B7CF8091E800877F8093E80025
:104760008091E80080FFFCCF8091F202C1CF84B736
:10477000877F84BF0FB6F894A89580916000886108
:1047800080936000109260000FBE80E890E00FB64A
:10479000F89480936100909361000FBE0E94821F85
:1047A00008950E9480260E94DD26E2EEF0E08081DE
:1047B0008460808378940E945C29089588E291E067
:1047C0000E94BB1D089580912303853031F48091B0
:1047D0002303853019F00E94FD1F08950E94D21F07
:1047E00080912103882399F30E948F1F882379F3F6
:1047F0000E948B240E94BF07EACFA0E2B0E0E3E072
:10480000F4E20C94BA2980912303843009F583E003
:104810008093E9008091E80082FF1AC08091E8004F
:1048200090E085FF09C050E040E060E270E0CE011A
:1048300001960E94F02491E08091E8008B778093AC
:10484000E800992329F060E2CE0101960E94EE1C57
:10485000A096E2E00C94D6299A0140912A03509147
:104860002B030E9434240895492F552743305105C6
:1048700021F168F44130510509F443C0423051053B
:1048800009F444C090E080E050E040E026C04132AE
:10489000510551F142325105A9F76330710590F786
:1048A000FB01EE0FFF1FE654FE4F4081518169541A
:1048B0007E4FFB01808190E010C0992781309105E7
:1048C00081F0009729F00297E9F6ECE5F4E002C0E8
:1048D000ECE8F4E0849190E0AF01F901518340836A
:1048E0000895E4E7F4E0F6CF6330710558F6660FFB
:1048F000771FFB01E054FE4F4081518189E090E039
:10490000ECCF82E190E04BEE54E0E7CF8BE590E016
:1049100040E954E0E2CF80E189BD82E189BD09B47C
:1049200000FEFDCF8091D8008F7D8093D8008091CC
:10493000E00082608093E0008091E00081FDFCCF88
:104940000895AF92BF92CF92DF92FF920F931F9381
:10495000CF93DF936C01EB018A010E944F26F82E62
:10496000811123C00115110539F0F8018081918171
:10497000C81BD90BC80ED91EB12CA12C2097A9F0A9
:104980008091E80085FD22C08091E8008E778093B9
:10499000E80001151105A1F0F80180819181A80EB0
:1049A000B91EB182A08285E0F82E8F2DDF91CF91C4
:1049B0001F910F91FF90DF90CF90BF90AF9008951F
:1049C0000E944F268823D1F2F82EEFCFF601819175
:1049D0006F018093F1002197FFEFAF1ABF0ACECF8E
:1049E000AF92BF92CF92DF92FF920F931F93CF931C
:1049F000DF936C01EB018A010E944F26F82E811192
:104A000023C00115110539F0F80180819181C81B7F
:104A1000D90BC80ED91EB12CA12C2097A9F08091DA
:104A2000E80085FD22C08091E8008B778093E80044
:104A300001151105A1F0F80180819181A80EB91E20
:104A4000B182A08285E0F82E8F2DDF91CF911F914A
:104A50000F91FF90DF90CF90BF90AF9008950E948C
:104A60004F268823D1F2F82EEFCF8091F100F60186
:104A700081936F012197FFEFAF1ABF0ACECFFC01E0
:104A800080912A0390912B0386179707A0F0611558
:104A9000710529F49091E8009E779093E80090E0EA
:104AA0006115710551F4911108C08091E80082FFF1
:104AB00034C080E00895BC01F2CF809123038823A5
:104AC000C1F18530C1F18091E80083FD30C0809153
:104AD000E80082FDEACF8091E80080FFE1CF80917D
:104AE000F3002091F200382F6115710519F028307C
:104AF000310558F091E02830310509F090E020911F
:104B0000E8002E772093E800CBCF81918093F100CD
:104B1000615071092F5F3F4FE7CF809123038823B6
:104B200041F0853041F08091E80083FFBECF81E005
:104B3000089582E0089583E00895FC0180912A039E
:104B400090912B0386179707A0F06115710529F442
:104B50008091E8008E778093E80090E06115710500
:104B600051F4911108C08091E80082FF35C080E0C7
:104B70000895BC01F2CF809123038823C9F18530C9
:104B8000C9F18091E80083FD31C08091E80082FD89
:104B9000EACF8091E80080FFE1CF8091F30020917F
:104BA000F200382F6115710519F02830310558F0E1
:104BB00091E02830310509F090E08091E8008E778F
:104BC0008093E800CBCF84918093F10031966150BF
:104BD00071092F5F3F4FE6CF80912303882341F077
:104BE000853041F08091E80083FFBDCF81E00895DA
:104BF00082E0089583E00895982F973028F08F7011
:104C00008093E90081E008959093E900242F762FA6
:104C100050E0981731F07091EC002091ED00509128
:104C2000F00021FD02C09F5FE8CF3091EB003E7F96
:104C30003093EB003091ED003D7F3093ED003091EB
:104C4000EB0031603093EB007093EC002093ED00AB
:104C50005093F0002091EE0027FDE5CF80E008950D
:104C60008091240387FF13C08091E80082FF06C073
:104C70008091E8008B778093E80004C08091230343
:104C80008111F2CF0895809123038823D9F3809175
:104C9000E80080FFF8CF8091E8008E77ECCF20917C
:104CA000E4003091E50095E6A9012091EC00822F07
:104CB000817020FF06C08091E80080FF06C080E080
:104CC00008952091E80022FD1AC0809123038823D3
:104CD00089F0853089F08091EB0085FD0FC020912F
:104CE000E4003091E50042175307F9F29150E1F6E4
:104CF00084E0089582E0089583E0089581E00895B6
:104D00000E94EF260E94F726E0EEF0E080818160AD
:104D10008083E8EDF0E080818F77808319BCA7ED78
:104D2000B0E08C918E7F8C9380818F7E80831092F7
:104D3000220308950F931F93CF93DF930E94EF26D2
:104D40000E94F726C8EDD0E088818F77888388811C
:104D50008068888388818F7D888319BC10922303A3
:104D600010921F03109221031092200300EE10E016
:104D7000F80180818B7F808388818160888342E015
:104D800060E080E00E94FC25E1EEF0E080818E7F13
:104D90008083E2EEF0E080818160808380818860A2
:104DA0008083F80180818E7F808388818061888301
:104DB000DF91CF911F910F910895E8EDF0E0808190
:104DC0008F7E8083E7EDF0E080818160808384E0E6
:104DD00082BF81E0809322030E949A260895E8ED25
:104DE000F0E080818E7F80831092E200089510921F
:104DF000DA001092E10008951F920F920FB60F9201
:104E000011242F933F934F935F936F937F938F93CF
:104E10009F93AF93BF93EF93FF938091E10082FF45
:104E20000BC08091E20082FF07C08091E1008B7F80
:104E30008093E1000E945B298091DA0080FF19C015
:104E40008091D80080FF15C08091DA008E7F80931A
:104E5000DA008091D90080FF96C080E189BD82E1AF
:104E600089BD09B400FEFDCF81E0809323030E9439
:104E7000B4228091E10080FF19C08091E20080FFA0
:104E800015C08091E2008E7F8093E2008091E20065
:104E900080618093E2008091D80080628093D80086
:104EA00019BC85E0809323030E94C8228091E10011
:104EB00084FF2BC08091E20084FF27C080E189BD80
:104EC00082E189BD89B5982F917080FFFBCF8091D9
:104ED000D8008F7D8093D8008091E1008F7E8093F1
:104EE000E1008091E2008F7E8093E2008091E200F9
:104EF00081608093E20080911F03882309F449C0F8
:104F000084E0809323030E94D1228091E10083FFFB
:104F100029C08091E20083FF25C08091E100877F56
:104F20008093E10082E08093230310921F0380911D
:104F3000E1008E7F8093E1008091E2008E7F80937C
:104F4000E2008091E20080618093E20042E060E054
:104F500080E00E94FC258091F00088608093F00042
:104F60000E94C522FF91EF91BF91AF919F918F91C8
:104F70007F916F915F914F913F912F910F900FBE55
:104F80000F901F90189519BC109223030E94C22203
:104F900070CF8091E30087FD93E090932303B3CF1C
:104FA0001F920F920FB60F9211242F933F934F939E
:104FB0005F936F937F938F939F93AF93BF93CF93A1
:104FC000DF93EF93FF93D091E900DF708091EC00C5
:104FD000C82FC17080FDC0E81092E9008091F000F8
:104FE000877F8093F00078940E9414281092E90043
:104FF0008091F00088608093F000CD2BCF70C0933B
:10500000E900FF91EF91DF91CF91BF91AF919F9117
:105010008F917F916F915F914F913F912F910F9061
:105020000FBE0F901F901895AAE2B0E0EAE1F8E2F7
:105030000C94B92984E293E02091F100FC012193C2
:10504000CF01F3E08C329F07B9F70E94FB228091D9
:10505000E80083FF1EC180912403909125039A30BC
:1050600008F017C1E92FF0E0E955F54D0C949D29A2
:10507000803899F0823809F00CC1809128038F7034
:10508000873008F006C18093E9008091EB0085FB32
:10509000882780F91092E90006C080912003909142
:1050A0002103911182609091E800977F9093E8002E
:1050B0008093F1001092F1008091E8008E77E5C0B6
:1050C000882309F4D3C0823009F0E3C0809126031D
:1050D0008111D6C0809128038F702FEF280F2630C2
:1050E00008F0D7C08093E9002091EB0020FFC8C0F2
:1050F000933031F48091EB0080628093EB00C0C06C
:105100009091EB0090619093EB0021E030E001C0C2
:10511000220F8A95EAF72093EA001092EA00809124
:10512000EB008860EACF8111B4C0109126031F778D
:105130008091E3008078812B8093E3008091E800E8
:10514000877F8093E8000E9430268091E80080FFEE
:10515000FCCF8091E30080688093E30082E011112E
:1051600083E08093230395C08058823008F091C07B
:1051700080912603909127038C3D23E09207A1F5AF
:1051800083E08A838AE289834FB7F894DE0113961D
:1051900020E03EE051E2E32FF0E050935700E4912D
:1051A00020FF03C0E295EF703F5FEF708E2F90E01D
:1051B000EA30C0F0C7968D939D932F5F243159F745
:1051C0004FBF8091E800877F8093E8006AE270E03B
:1051D000CE0101960E943F258091E8008B77809355
:1051E000E80057C0C096E7CF60912803709129036B
:1051F000AE014F5F5F4F0E942C24BC01892B09F444
:1052000048C09091E800977F9093E80089819A8147
:105210000E949D25E1CF8038E1F58091E800877FED
:105220008093E80080911F038093F10045CF8111A6
:1052300030C090912603923060F58091E800877F1E
:105240008093E80090931F030E94302680911F03F3
:10525000882311F084E005C08091E30087FDFACF38
:1052600081E0809323030E94DC2213C080912603F7
:10527000813079F481E0933009F080E0809321035C
:105280001092E9008091E800877F8093E8000E94F7
:1052900030268091E80083FF0AC08091E800877F74
:1052A0008093E8008091EB0080628093EB00AA96E7
:1052B000E3E00C94D5290895CF93809123038823AC
:1052C000A1F0C091E900CF709091EC00892F81701E
:1052D00090FD80E8C82B1092E9008091E80083FDE2
:1052E0000E941428CF70C093E900CF9108950E94C6
:1052F0008026109223030895E8EDF0E0808180611C
:1053000080838AE18A95F1F700C08091D90081708D
:10531000089597FB072E16F4009407D077FD09D067
:105320000E94E12907FC05D03EF4909581959F4F9E
:105330000895709561957F4F0895EE0FFF1F0590BA
:10534000F491E02D09946927962769277827872704
:10535000782708952F923F924F925F926F927F929B
:105360008F929F92AF92BF92CF92DF92EF92FF9275
:105370000F931F93CF93DF93CDB7DEB7CA1BDB0B21
:105380000FB6F894DEBF0FBECDBF09942A883988C6
:1053900048885F846E847D848C849B84AA84B984CD
:1053A000C884DF80EE80FD800C811B81AA81B981D9
:1053B000CE0FD11D0FB6F894DEBF0FBECDBFED01ED
:1053C0000895AA1BBB1B51E107C0AA1FBB1FA6174C
:1053D000B70710F0A61BB70B881F991F5A95A9F79E
:1053E00080959095BC01CD010895FB01DC0104C0BE
:1053F0008D910190801921F441505040C8F7881BCD
:10540000990B0895FB01DC0102C001900D924150FF
:105410005040D8F70895F999FECF92BD81BDF89A12
:10542000992780B50895A8E1B0E042E050E00C94DF
:105430004F2ADC01A40FB51F4150504048F0CB016A
:10544000840F951F2E910E942A2A41505040D0F778
:105450000895262FF999FECF92BD81BDF89A019744
:1054600000B4021639F01FBA20BD0FB6F894FA9AAC
:10547000F99A0FBE08950396272F0E942A2A0E94A8
:10548000292A252F0E942A2A242F0C942A2A0196A1
:10549000272F0E942A2A0C94292ADC01CB01FC0127
:1054A000F999FECF06C0F2BDE1BDF89A319600B47D
:1054B0000D9241505040B8F70895F894FFCFC205BF
:1054C000C2051206120677069306F105F105980645
:1054D000FF060E070E07A0171418A81772177617E5
:1054E000AC177A17B017BC1786170D188A17C01794
:1054F0008E17C417EC179217C817F3179817CE1703
:10550000D6177E17B4178217B8179C17D217E21751
:10551000FC170B186C17A4171B18FE1B041CED1BA3
:10552000F81B0A1C101C161C031D0F1D451D571DC2
:10553000621D6D1D701D701D701D151D151D751DC5
:10554000791D811D8E1D9B1D9E1DA11DAE1D382820
:1055500060284929602849299328B42849290B291A
:02556000172909
:105562006002800201000000010000000000000053
:105572000801000000040900000000000028085093
:10558200011E0A14010302015B2297229022892242
:10559200822201E200E900EA00B500B600B700CDC0
:1055A200008301CC008A019201940121022302248A
:1055B200022502260227022A02B300B4006F0070FD
:1055C200009F01CB019F02A002818283E200E900D9
:1055D200EA00B500B600B700CD008301CC008A0115
:1055E20092019401210223022402250226022702AB
:1055F2002A02B300B4006F0070009F01CB019F022A
:10560200A002818283946697C634353534C6976684
:1056120094F4F5F6F7AE024422B6D505FD041F0553
:06562200A204BB04DB043E
:00000001FF
