:100000000C9474010C94AE1B0C94AC010C94AC01D8
:100010000C94AC010C94AC010C94AC010C94AC01AC
:100020000C94AC010C94AC010C94DA200C94AE212D
:100030000C941A1A0C94AC010C94AC010C94AC0105
:100040000C94AC010C94AC010C94AC010C94AC017C
:100050000C94AC010C94BD1A0C94AC010C94AC0142
:100060000C94AC010C94AC010C94AC010C94AC015C
:100070000C94AC010C94AC010C94AC010C94AC014C
:100080000C94AC010C94AC010C94AC010C94AC013C
:100090000C94AC010C94AC010C94AC010C94AC012C
:1000A0000C94AC010C94AC010C94AC012B0014002A
:1000B0001A000800150017001C0018000C001200A0
:1000C00013002A00E00004001600070009000A00DF
:1000D0000B000D000E000F0033003400E1001D0086
:1000E0001B00060019000500110010003600370043
:1000F0003800E500000000000000E3002A002C00AA
:100100002C002800E60000000000000000000000B5
:1001100000000000000000000000000000000000DF
:1001200000000000000000000000000000000000CF
:1001300000000000000000000000000000000000BF
:1001400000000000000000000000000000000000AF
:10015000000000000000000000000000000000009F
:1001600000000000000000000000000016036D0009
:1001700079006B006500790062006F006100720019
:1001800064000000160369006E00740065007200D0
:100190006500730074006F0072000000040309041E
:1001A00009023B00020100A0FA090400000103015A
:1001B0000100092111010001224400070581030803
:1001C00000010904010001030000000921110100E0
:1001D0000122B6000705820320000112010002007F
:1001E000000008EDFE000000010102000105010908
:1001F00002A10185020901A10005091901290815BB
:1002000000250195087501810205010930093115A4
:1002100081257F95027508810609381581257F950E
:100220000175088106050C0A38021581257F9501A4
:1002300075088106C0C005010980A1018503190167
:100240002AB700150126B700950175108100C00579
:100250000C0901A101850419012AA002150126A09B
:1002600002950175108100C005010906A1018506EE
:10027000050719E029E71500250195087501810298
:100280000507190029EF1500250195F07501810278
:100290000508190129059505750191029501750358
:1002A0009101C005010906A101050719E029E7151B
:1002B00000250195087501810295017508810105E8
:1002C00007190029FF150026FF0095067508810013
:1002D00005081901290515002501950575019102EB
:1002E000950175039101C00011241FBECFEFDAE024
:1002F000DEBFCDBF04B603FE18C0809128039091E5
:100300002903A0912A03B0912B038730904BA7407B
:10031000B04B59F4109228031092290310922A032B
:1003200010922B03E0E0F8E3099511E0A0E0B1E0C2
:10033000EAEEF8E402C005900D92A43BB107D9F7AC
:1003400023E0A4EBB1E001C01D92A832B207E1F7AF
:100350000E94BC130C9434240C940000811112C030
:10036000683080F44C3070F4E42FF0E08CE0689F4B
:10037000E00DF11D1124EE0FFF1FE455FF4F859195
:100380009491089581E090E008950E94AE0108954F
:1003900081E008950E94C801089581E008950E94B7
:1003A000C80108950E94CF01089508950E94D501C3
:1003B0000895A6E0B0E0EFEDF1E00C9490234983BE
:1003C0005A839E833091BB0189819A8131111AC071
:1003D0003E81332399F0222389F00E947107182F60
:1003E000682F89819A810E944D0769817A81812FC6
:1003F0000E94720E2696E3E00C94AC230E945F07E5
:10040000182FF3CF0E94710769817A81F1CFFC0127
:10041000262F4081518162817381848195810E9460
:10042000D9010895CF93DF93EC0161E00E940702A8
:10043000BE010E94CA01DF91CF910895CF93DF934F
:10044000EC0160E00E940702BE010E94D601DF912C
:10045000CF91089581E008950E942A020895CF93D4
:10046000C82F0E9422068C2F0E942C022FEF84E3BB
:100470009CE0215080409040E1F700C00000CF9107
:10048000089581E00E942F020E94E11A089580E001
:100490000E942F020E94051B08950F931F93CF9374
:1004A000DF938C0161E00E940702EC01B8010E9419
:1004B000D201811106C080E0DF91CF911F910F9191
:1004C0000895B801CE010E94E6178823A1F3B80170
:1004D000CE010E941014882371F3B801CE010E944E
:1004E000E613882341F3F8018581882361F0C33046
:1004F000FCE7DF07E9F058F4C115ECE7DE07A9F0E7
:10050000C130DC47B9F0C8010E94CD01D5CFCB3551
:100510008CE7D807A9F0CC35ECE7DE0771F0CA35D7
:10052000DC4789F70E94B80BEECF0E944102C3CF8F
:100530000E94C00B0E944702BECF0E94AE0BE3CFC9
:100540000E94BC0BE0CF0E94F6190E94CA020895D7
:100550000E94CE020E94FB190895089581E008953B
:100560000895CF93DF93D82F0E94AE02C82F88231F
:1005700019F08D2F0E94B0028C2FDF91CF9108953A
:100580000895CF93C82F0E94AD028C2F0E94B10214
:10059000CF91089580E00E94C10208950E942F1813
:1005A0000E94C1020895CF930E942F18C82F8091F6
:1005B000B6018C1779F0C093B6010E94861A609339
:1005C000B7017093B8018093B9019093BA018C2F51
:1005D0000E94C102CF910895ADE0B0E0E2EFF2E0F9
:1005E0000C949123488759876A877B878C879D87DE
:1005F00091110E94BE0A1F8286E0FE013896DE013C
:10060000119601900D928A95E1F78D8181110DC0AF
:1006100029813A814B815C816D817E818F810E942D
:10062000080A2D96E2E00C94AD23CE0101960E94BB
:1006300012028111EDCFF5CFFC012481213021F48C
:10064000808191810E94A3070895662329F00E946A
:1006500071150E94561608950E94DD15FACFCF93AA
:10066000C82F882399F08CEF8C0F813A88F48C2F57
:100670000E94D618882329F08C2F0E9476190E9498
:10068000520B8C2F0E945F190E94520BCF9108953C
:1006900080E28C0F883048F4C77081E001C0880F79
:1006A000CA95EAF70E94A10AEFCFEBE5EC0FE33021
:1006B00040F4F0E0EA59FE4F808190E00E946A1811
:1006C000E5CFE8E5EC0FEB3150F4F0E0EE0FFF1F63
:1006D000E05DFE4F808191810E948F18D7CF83E328
:1006E0008C0F833198F661E08C2F0E942503CECFCA
:1006F000882381F19CEF980F913A28F40E94761993
:100700000E94520B089590E2980F983050F4877031
:1007100091E001C0990F8A95EAF7892F0E94A70AF4
:10072000EFCF9BE5980F933028F490E080E00E9493
:100730006A18089598E5980F9B3128F490E080E0BE
:100740000E948F18089593E3980F933118F460E096
:100750000E94250308951F93CF93DF93182FEB0179
:100760000E942F03209739F4812F0E947803DF9194
:10077000CF911F9108958FE99FE00197F1F700C095
:1007800000002197EFCF70E060E0893311F460E55D
:1007900070E00E94AB030895882321F00E94A10A13
:1007A0000E94520B0895882321F00E94A70A0E94FC
:1007B000520B0895B0E0A0E0E0EEF3E00C948A2341
:1007C0006C01D62FC72FFC011581068102950F7091
:1007D0000E94970AE82E8823F9F0E12E1123E1F018
:1007E0008C2F807F803461F080E28D0F883008F19B
:1007F0008C2F807E803221F4D230D8F00023C9F0D3
:100800008091F40282FF15C082E00E94820B0E9458
:10081000970A91E0E82EE926BC2EB2949FE0B92217
:10082000FBE0FB15B8F1EB2DF0E0EA5CFB4D0C941E
:100830007B23E12CF1CF0C2F0F70C07F11F00295BC
:10084000007F112399F0002359F080E28D0F88304A
:1008500010F0D11107C0802F0E94A10A0E94520BF4
:100860008D2F5AC0802F0E94B10AF8CF8D2F0E9481
:100870007803002379F080E28D0F883010F0D111D9
:1008800004C0802F0E94A70A03C0802F0E94B70ACD
:100890000E94520BEB2DE850FF0B349720F40E947E
:1008A0002F180E94C102EE2089F00E94930A80FD59
:1008B0000DC0F60115820E948D0A0E94AB06C6018A
:1008C0000E94E9050E948D0A0E94BB06CDB7DEB7E3
:1008D000E9E00C94A6232C2F2F70F22EC07FC0329B
:1008E00019F0F29480EFF822DD2341F0D130D1F1FC
:1008F000112309F444C00023F1F0B2CF8091F40237
:1009000082FD15C0112359F0FF2029F08F2D0E9480
:10091000A10A0E94520B80E00E942F03BBCF80E00F
:100920000E947803FF2009F4B5CF8F2DABCF1123A0
:1009300069F0011104C08F2D0E94CC03ABCF0130B0
:1009400009F0A8CF8F2D0E94D50AA4CF0111A2CF04
:100950008F2D0E94D3038F2D0E94E10A8F2D0E94BC
:10096000C50A98CF112321F0063008F093CFE3CFCA
:10097000053008F08FCF8F2D0E94D3038BCF00233B
:10098000D1F3D93349F43FEF87EE93E03150804003
:100990009040E1F700C000008D2F0E9478037ACFCD
:1009A0008C2F86958695837069F0813009F072CF1F
:1009B0008D2F9C2F9370111102C080E090E00E9457
:1009C0008F1868CF8D2F9C2F9370111102C080E07B
:1009D00090E00E946A185ECF612F8D2F0E94250340
:1009E00059CF8C2F8370A1F5111154CF4D2F429503
:1009F00046954770440F440F2D2F2F7030E0042E82
:100A000002C0220F331F0A94E2F790E080E0D4FF87
:100A100009C08FE090E002C0880F991F4A95E2F765
:100A200080959095C695C695C370822B932BC23046
:100A300049F058F4C13019F00E947B062BCF0E9478
:100A4000720628CF0E94840625CF0E946F0622CF0F
:100A50008695112311F08C2F8170882309F41ACF09
:100A60004D2F429546954770440F440F2D2F2F7000
:100A700030E0042E02C0220F331F0A94E2F790E008
:100A800080E0D4FF09C08FE090E002C0880F991F7A
:100A90004A95E2F780959095C695C695C370822BCE
:100AA000932BC23049F058F4C13019F00E94E60689
:100AB000F1CE0E94DD06EECE0E94EF06EBCE0E9444
:100AC0009306E8CECF70112329F08C2F0E94AB063D
:100AD0008D2F32CF8D2F0E94D3038C2F0E94BB0607
:100AE000D9CED23F41F160F4D03FB9F0D13F81F08F
:100AF000112309F446C00111B3CE8C2F8F711FC092
:100B0000D33F01F1D43FA1F78091F40282FD24C0CC
:100B10008C2F8F71112311F312C0112341F0053076
:100B200008F0B8CE8C2F8F710E94CD06B3CE063060
:100B300008F0B0CEF7CF8C2F8F711111CFCF0E945C
:100B4000AB06A8CE112329F08C2F8F710E949F062F
:100B5000A1CE0E949A069ECE112349F0CF718C2F10
:100B60000E94AB0663E08C2F0E94640B93CE81E061
:100B70000E94820B023008F48DCE82E00E94820B2C
:100B800089CE002359F0D93309F006CFEFEFF7EE05
:100B900023E0E150F0402040E1F7FCCE8C2F8F7134
:100BA0009DCF0F931F93CF93DF93EC0168817981E1
:100BB0008D810E94AE078C010E94F8060E946E068D
:100BC000B801CE010E94DA03DF91CF911F910F91FE
:100BD0000895CF93DF93EC018C81882399F0CE01A7
:100BE0000E944D02811111C00E94970A882351F082
:100BF0008D81882339F08091F40282FF03C082E066
:100C00000E94820BDF91CF910895CE010E94D10501
:100C1000CE010E941E02F6CF90E080E00E946A188A
:100C200090E080E00E948F180E94BE0A0E94520B42
:100C30000E9472160E94561608950E948D190E94F5
:100C40000C0608950E94AE0A0E941D060895929512
:100C50009F70963091F058F4925F9F70923058F4E4
:100C6000803F19F030F4883E30F481E008959A5FB7
:100C7000F4CF843FD1F380E00895883EB0F3813F04
:100C8000D1F7F3CFFC012481222339F080819181B7
:100C90000E94A3070E942706089580E00895A6E019
:100CA000B0E0E5E5F6E00C9491232696E2E00C94A2
:100CB000AD23A7E0B0E0EFE5F6E00C949123279692
:100CC000E2E00C94AD2308950E94630608950E940B
:100CD00064069093EF018093EE01089508950E94B9
:100CE000670608952091EE013091EF01822B932B3E
:100CF0000E94670608952091EE013091EF01822352
:100D000093230E94670608952091EE013091EF0130
:100D1000822793270E94670608950E94630608951C
:100D20000E948D0608950E9490069093ED01809395
:100D3000EC01089590E080E00E949306089521E080
:100D400030E0A90102C0440F551F8A95E2F7CA019D
:100D50000E949306089521E030E002C0220F331F65
:100D60008A95E2F78091EC019091ED01822B932B13
:100D70000E949306089521E030E002C0220F331F45
:100D80008A95E2F7209530958091EC019091ED01E4
:100D9000822393230E949306089521E030E002C04D
:100DA000220F331F8A95E2F78091EC019091ED01BB
:100DB000822793270E94930608952091EC01309199
:100DC000ED01822B932B0E94930608952091EC0154
:100DD0003091ED01822393230E9493060895209180
:100DE000EC013091ED01822793270E94930608952C
:100DF0000895262F277091E001C0990F2A95EAF7F0
:100E000023E0769567952A95E1F7660F771F660FC1
:100E1000771FFA01E60FF71F50E040E0682F70E0FF
:100E20008191DF0111979B01042E02C03695279511
:100E30000A94E2F7217021952827292328272C934B
:100E40004F5F5F4F4430510559F70895A82FA770A1
:100E500023E0969587952A95E1F7880F991F880FCB
:100E6000991FFB01E80FF91F50E040E080E021915D
:100E700030E00A2E02C0369527950A94E2F72170D9
:100E80003327042E01C0220F0A94EAF7822B4F5F0A
:100E90005F4F4430510559F70895262F983070F46C
:100EA0008C3060F4682F70E08CE0989F600D711DAD
:100EB00011244CEB51E0822F0E94F9060895292F4E
:100EC000983068F48C3058F490E06CEB71E03CE0C2
:100ED000239F800D911D11240E942607089580E014
:100EE0000895B0E0A0E0E7E7F7E00C948A237C01E6
:100EF0000091EC011091ED018091EE019091EF01D4
:100F0000082B192BCFE0D0E0CC24C394D12CBC2EDD
:100F1000C6010C2E02C0880F991F0A94E2F78023A5
:100F20009123892B49F4219790F7B12C8B2DCDB7C4
:100F3000DEB7E9E00C94A623B7018C2F0E947E0E49
:100F4000019789F3F3CFCF93DF93EC010E947107F0
:100F5000BE010E947E0EDF91CF9108951F93CF9323
:100F6000DF93EB019091BB01992339F0CB010E94F3
:100F7000A307DF91CF911F910895882369F0CB01DA
:100F80000E947107182F682FCE010E944D07BE01E5
:100F9000812F0E947E0EEDCFCB010E945F07182F9C
:100FA000F6CF1F93CF93DF93C091F00117E08091AC
:100FB000F1018C1304C0DF91CF911F910895D0E00F
:100FC0001C9FF0011D9FF00D1124EE50FE4F20815B
:100FD0003181428153816481758186810E945906E5
:100FE0002196C770E4CF20912A0230912B024091C4
:100FF0002C0250912D0260912E0270912F0280914F
:1010000030020E9459060895CF93DF9380913002F9
:10101000807F09F04DC080912F02882309F448C0D9
:10102000E091F0015091F101C0912B02D0912A0280
:1010300060912C0270912D0247E05E17C9F18E2F4E
:1010400090E0E49FF0011124EE50FE4F2481222312
:1010500091F1489FF001499FF00D1124DF01AE503E
:10106000BE4F11962C9111972C1325C02C912D1346
:1010700022C015962C91159721111DC012962D9105
:101080003C91261B370B283C3105A8F48091300297
:101090008F70806180933002E850FE4F80818F70A6
:1010A000806180838AE292E00E94E9050E94D10774
:1010B000DF91CF910895FC013196E770BECF482FA4
:1010C0002091F0019091F10157E0291302C080E0D6
:1010D000089530E0529FF001539FF00D1124EE501F
:1010E000FE4F8181681306C08081481303C085814B
:1010F0008111EECF2F5F3F4F2770E7CFA4E1B0E023
:10110000E4E8F8E00C9487238C0186E0F801DE0126
:101110001F9601900D928A95E1F7F8018481E58090
:101120009AE2A92E92E0B92E90912E0291111FC041
:101130008823D1F0EE20A9F0C8010E944206F82EC3
:10114000882379F087E0F801D50101900D928A9506
:10115000E1F7C5010E941C030E9404080E94F307E6
:101160005FC0C8010E94E905FF24F39459C0C08004
:10117000D18082809380F0902F0220912C023091B8
:101180002D02A401421B530BFF2009F4F9C0483C77
:10119000510508F0A7C0882309F442C090912B02A2
:1011A00080913002282F207F09F05CC09D1116C06D
:1011B00090912A02C91212C0E1104EC08F70806156
:1011C000809330020E94F3078AE292E00E94E905D0
:1011D00080913002F8018683F12C22C0E1103CC0DE
:1011E0006D2D8C2D0E945F086D2D8C2D0E945F0847
:1011F000E82E8111F1CFCF86D88A8F8598890E94F9
:10120000A307292F22952F70243078F49F70223065
:10121000A8F09923B9F0F8019681907F99F4FE2CFB
:101220008F2D6496ECE00C94A3232A5F2F7022305C
:1012300068F0C8010E94E905EF2CF1CF992311F065
:10124000882369F3805E883050F3F3CF803F38F312
:10125000815F833070F7E3CF8091300281608093AB
:101260003002BACF9D1113C090912A02C9120FC04B
:10127000E1100DC08683C8010E94E90587E0F801EE
:10128000AAE2B2E001900D928A95E1F767CFC8011A
:101290000E944206882309F464CFEE2009F461CF4E
:1012A00080913002803288F020912A0230912B0206
:1012B000398728879B868A8690912E029C871D8677
:1012C0008E87CE0108960E94E90587E0F801AAE220
:1012D000B2E001900D928A95E1F70E9404080E9405
:1012E000F30742CF90913002292F207FA1F4682D7F
:1012F0009A8A898AA6017A899E2D0E944F068AE2DF
:1013000092E00E94E90587E0F50111928A95E9F7DC
:101310000E94F30761CF882309F482CF80912B02CA
:101320008D1110C080912A02C8120CC0E1100AC0B1
:101330009683C8010E94E90587E0F50111928A951C
:10134000E9F76ECFC8010E944206882309F409CF4D
:10135000EE2009F406CF80913002803208F4B5CF38
:1013600020912A0230912B023A8329839C828B821E
:1013700090912E029D831E828F83CE010196A3CF72
:10138000483C5105B8F5882309F4EECEFE2CEE203A
:1013900009F4E7CE80912B028D111EC080912A02A4
:1013A000C8121AC08091300280FD0DC0982F907F26
:1013B00051F08683903F09F45ECF982F907F905F25
:1013C0008F70892B57CF87E0F801AAE2B2E0019035
:1013D0000D928A95E1F724CFC8010E94420681113F
:1013E00074CF80913002816080933002C8010E94E6
:1013F000E90516CF682D9A8A898AA6017A899E2DD9
:101400000E944F0687E0F50111928A95E9F7A6CE72
:10141000AEE0B0E0EEE0FAE00C9490232887398744
:101420004A875B876C877D878E87CE0108960E94EE
:101430007E088823B1F06C85662341F028853985C4
:101440004A855B857D858E850E94590617E08091CF
:10145000F0019091F10189133DC02E96E3E00C94C8
:10146000AC2387E0FE013896DE01119601900D92C3
:101470008A95E1F78C85882349F32091F10130E0CA
:10148000C9010196877099274091F0014817190604
:1014900099F097E0929FD001939FB00D1124AE5028
:1014A000BE4FFE01319601900D929A95E1F780931F
:1014B000F1010E94D107CACF0E9422061092F101C9
:1014C0001092F00187E0EAE2F2E0DF011D928A95D6
:1014D000E9F7BCCF819FC00111248E509E4F0E941E
:1014E0007E08882309F4B9CFE091F0011E9FF00136
:1014F0001124EE50FE4F208131814281538164815D
:10150000758186810E9459068091F00190E00196D4
:10151000877099278093F0019ACF80915902869520
:1015200086958695089580915902877008959091C7
:101530005902977081E009F480E008958091850256
:10154000089590918502892B809385020895809556
:1015500090918502982390938502089510928502B8
:10156000089590918402892B809384020895809538
:10157000909184029823909384020895109284029B
:10158000089508950E94C10A089590915A02292F42
:10159000282331F08095892380935A020E94C20A41
:1015A000089508950E94D10A089590915B02292F11
:1015B0002823281729F0982B90935B020E94D20AC7
:1015C000089590915B02292F282331F0809589237B
:1015D00080935B020E94D20A089580915B02882367
:1015E00029F010925B0280E00E94D20A0895CF9306
:1015F000C091850280918402C82B80915B02882370
:1016000031F0C82B0E94B41881110E94ED0A8C2F72
:10161000CF910895CF93DF93C0910201D091030140
:101620000E94F70A8883C0910201D091030148E02B
:1016300050E061E572E0CE010E94CC23892B59F085
:1016400088E0FE01A1E5B2E001900D928A95E1F7F4
:10165000CE010E944318DF91CF910895CF93DF937D
:10166000C0910001D09101010E94F70A8983C091C5
:101670000001D091010140E250E061E372E0CE014F
:101680000E94CC23892B59F080E2FE01A1E3B2E055
:1016900001900D928A95E1F7CE010E944E18DF91DC
:1016A000CF91089580912F01882339F08091F30222
:1016B00087FF03C00E942E0B08950E940A0B089515
:1016C00008950E94600B08959091F40292FF11C05A
:1016D00098E0899F90011124622B609359020E9427
:1016E000AB06809159028695869586950E94610B7E
:1016F00008950E94AB0608951092590280E00E945E
:10170000610B089590915902809589238093590225
:10171000282F277069F4891759F09091F40292FFED
:1017200007C08695869586950E94BB060E947C0B15
:1017300008959091F40292FB222720F9281769F06E
:1017400080FB92F99093F4028091F3029091F4025D
:101750000E94E10B82E00E94820B08958091F402C6
:1017600082FB882780F991E089270E94990B0895D0
:1017700081E00E94990B089580E00E94990B0895E2
:101780006FEF7FEF90E080E00E941E24089590E0CC
:1017900080E00E94EA2321E0863E9E4F09F020E08F
:1017A000822F089582E090E00E94E223089583E072
:1017B00090E00E94E223089584E090E00E94EA23F2
:1017C0000895BC0184E090E00E941E240895AB01BE
:1017D000BC018FE090E00E9412240895AB01BC018F
:1017E00083E190E00E941224089560E070E0CB0154
:1017F0000E94EE0B089560E070E0CB010E94E70BC1
:101800000E94F50B0895A8E0B0E0E9E0FCE00C943C
:10181000912366EE7EEF90E080E00E941E2460E05F
:1018200082E090E00E94002481E090E09093EF013C
:101830008093EE0161E083E090E00E94002460E08C
:1018400074E184E090E00E941E2460E086E090E075
:101850000E9400246FEF87E090E00E94002440E0A7
:1018600050E0BA0188E090E00E94122460E084E237
:1018700090E00E94002460E087E190E00E94002454
:1018800060E08CE090E00E94002460E08DE090E059
:101890000E94002419821A821B821C821D821E82D1
:1018A0001F82188648E050E068E170E0CE010196A2
:1018B0000E94F02340E050E0BA0180E290E00E94F4
:1018C00012240E94FB0B2896E2E00C94AD230E94A8
:1018D000030C0895682F8EE090E00E940024089584
:1018E000A6E0B0E0E6E7FCE00C948F230E947A1AB1
:1018F0008C0180918602909187028017910781F078
:1019000019821A820E947A1A682F49815A81792F86
:1019100080E090E00E94EC02109387020093860220
:101920002696E4E00C94AB230E949A0F60939C02ED
:1019300070939D0280939E0290939F026093980201
:101940007093990280939A0290939B020895089550
:1019500008950E94A70C089508950E94AC0C089564
:1019600081E0089584EB9FE00E94C9130E94A80CB7
:101970000E94A90C08950E94C51108950895089524
:101980000E94BE0C0E94BF0C08950E94D30F0E94BB
:10199000C00208950E94711A0E94740F0E94CB1118
:1019A0000E9418110E94C50C0E94CE130E94DD11E6
:1019B0000E94AD0C0895A6E0B0E0E1EEFCE00C94CE
:1019C00085230E94B00C81110CC00E94700C0E94F3
:1019D000C5110E9494160E94D3022696EEE00C9444
:1019E000A1230E943B1128E8822E22E0922E64015E
:1019F00010E0F601E190F1906F01812F0E94F90F44
:101A00001F5F183009F44BC0E816F90691F3809176
:101A1000A00281FD0E9402100E94BB0C782E10E0F3
:101A200066246394812F0E94F90F7C01F401A19038
:101A3000B1904F018A159B0561F1A826BF2400E0F3
:101A4000CC24C394D12CC5018C219D21892BC1F0BC
:101A50007720B1F009831A830E947A1A9C838B83C2
:101A60006D8221E0C7018C219D21892B09F420E0A2
:101A700049815A816B817C818D81922F0E94EC0279
:101A80000F5FCC0CDD1C0C30F1F6F4013297F182C3
:101A9000E0821F5F183031F60E94940C98CFE81650
:101AA000F90609F0B4CF91CF1F93CF93DF930E9433
:101AB000830EEC01C11580E5D807F0F5C11580E46F
:101AC000D80708F09CC0C03ED10520F5CD3CD1051B
:101AD00008F082C0C83AD10578F4C53AD10508F0BB
:101AE00073C0C130D10519F1209709F1C430D10577
:101AF000F0F4D0E0C0E01BC0C33CD105D0F7C85A19
:101B0000D0E0CC0FDD1FC759DE4F0990D881C02D22
:101B1000D4640DC0C11580E2D80708F0D1C0C1154A
:101B200081E0D80708F05AC0C83ED10510F7CE01B1
:101B3000DF91CF911F910895C03682E5D80718F53F
:101B4000C03482E5D80708F06BC0C03282E5D80700
:101B500008F05FC0C11582E5D80708F497C02C2FA4
:101B60002695269580E2289F900111248C2F837062
:101B7000C1E0D0E002C0CC0FDD1F8A95E2F7C22B96
:101B8000D32BDD68D4CFC03A82E5D80760F4C038E3
:101B900082E5D80708F459C0CF71D0E0DC2FCC27FC
:101BA000C46FD06AC4CFC03C82E5D80708F462C0D5
:101BB000C03E82E5D80708F09CCFDC2FCC27CC278D
:101BC000DF71C06FD06AB3CFC55AD0E0C156DE4FC7
:101BD000C881D0E0D064ABCFD065A9CF8D2F0E9453
:101BE000250F182FCE0199270E94830EC12FD0E018
:101BF000DC2FCC27CC27DF71C82BD92B98CFCE0177
:101C000099270E94830ECC27DF70C82BD92BD06A6E
:101C10008ECFCF71D0E0DC2FCC27C16FD06A87CFB9
:101C20002C2F26952695277080E2289F900111245D
:101C30008C2F8370C1E0D0E002C0CC0FDD1F8A95ED
:101C4000E2F7C22BD32BDC6872CF2C2F269526957A
:101C5000277080E2289F900111248C2F8370C1E0AF
:101C6000D0E002C0CC0FDD1F8A95E2F7C22BD32B48
:101C7000DA685DCF8C2F8F710E94250FC82FD0E0BE
:101C8000DC2FCC27CC27DF71D06251CF8C2F8F7106
:101C90000E94250F55E0D695C7955A95E1F7CF706C
:101CA000D0E0DC2FCC27282F30E084FF05C044E0B3
:101CB000220F331F4A95E1F7C22BD32BD06937CFC0
:101CC0008D2F8F710E94250F182FCE0199270E940A
:101CD000830EC12FD0E0DC2FCC27CC27DF71C82B9F
:101CE000D92BD2CF462F783030F46C3020F4672FC8
:101CF0000E94C501089590E080E008950E94720E50
:101D00000E94540D089582389105B9F1B0F48133E1
:101D1000910509F47DC048F48932910509F46DC03C
:101D20008A32910509F47BC008958533910509F441
:101D30005FC08933910509F10895833E9105D9F17A
:101D400038F4803E910529F1823E910579F108959C
:101D5000863E9105D9F1873E910509F43EC0843E47
:101D6000910541F52091F40221FF24C08091F302F6
:101D700084FD19C087EE90E008952091F30223704E
:101D800009F05AC02091F40223FF14C089E290E0C8
:101D900008952091F30220FD38C03091F40230FF05
:101DA00009C024FF43C090E080E008952091F30231
:101DB00022FDF7CF08952091F30222FD3AC0309121
:101DC000F40230FD39C024FFF5CFEDCF2091F302AE
:101DD00023FFF0CF24FDE7CFCDCF2091F30223FDE9
:101DE0002EC03091F40231FFEECF84EE90E00895E2
:101DF0002091F30225FFDECFC9CF2091F30225FD0C
:101E000021C02091F40223FFD5CF89E390E0D2CF07
:101E10002091F30226FFCECF8AE290E00895209130
:101E2000F30226FFC7CF81E390E0089583EE90E0B0
:101E3000089582EE90E0089580EE90E0089586EE99
:101E400090E0089585E390E008959091F30292FF69
:101E500010C041E0282F2471243009F040E031E027
:101E6000282F2871283009F030E0431711F02CE0BA
:101E7000822793FF10C041E0282F2471243109F0FC
:101E800040E031E0282F2871283109F030E0431775
:101E900011F02CE082273091F40230FF10C051E0A5
:101EA000282F2171213009F050E041E0282F2871BE
:101EB000283009F040E0541711F029E0822731FF63
:101EC00010C041E0282F2171213109F040E031E0BC
:101ED000282F2871283109F030E0431711F029E04C
:101EE000822794FD877E08951092EF021092F002EF
:101EF0001092F1021092F2020895CF92DF92EF92C7
:101F0000FF926B017C010E94C51181110EC00E94DD
:101F1000861AC61AD70AE80AF90AC092EF02D092C6
:101F2000F002E092F102F092F202FF90EF90DF9067
:101F3000CF9008950F931F930E94C511882329F015
:101F40000E94861A1F910F9108950E94861A00918F
:101F5000EF021091F0022091F1023091F202600F35
:101F6000711F821F931FEECF80E008950E94C00B67
:101F700008950E943B112FEF86E791E021508040A9
:101F80009040E1F700C000000E943B1180E00E94F9
:101F9000F90F80FF04C00E94B60F0E94E11A089555
:101FA0000E94B90F08950E94C70B811102C00E94C0
:101FB000670C0E94D20B8093A0020E94DC0B9093CE
:101FC000F4028093F3020E94D00F0E94D70B90E09E
:101FD0000E946F068091EC019091ED010E949006A5
:101FE000089508950E94F10F089508950E94F50F35
:101FF0000895E82FF0E0EE0FFF1FEA5FFC4F8081AD
:1020000091810895089580EA8A95F1F7089500C0B6
:1020100008950E940310089508950E940C100895D9
:10202000A8E0B0E0E6E1F0E10C948D230E94C51138
:10203000F82E60911603882309F446C058E0E52E77
:102040008E010F5F1F4FF8018E2D11928A95E9F7CF
:10205000862F90E0880F991FB8018A5F9C4F0E94DD
:10206000EB118823C9F08091F50290E0880F991F49
:1020700048E050E0B8018A5F9C4F0E94CC2321E0E9
:102080002093A102892B91F4F12C0E94F60F8F2D41
:102090002896E6E00C94A9238091A1028823A1F35D
:1020A000F8011192EA94E9F71092A102A091F502C9
:1020B000B0E0AA0FBB1FAA5FBC4F88E0F8010190F7
:1020C0000D928A95E1F7E1CF70E0660F771F6A5FA6
:1020D0007C4F8091F50290E0880F991F8A5F9C4F9A
:1020E0000E9472120E940D10D2CFF894E82FE29550
:1020F000EF70F0E031A1282F2F7081E090E001C057
:10210000880F2A95EAF7982F9095932391A392A18F
:10211000892B82A378940895CF93DF9384EF0E9454
:10212000751085EF0E94751086EF0E94751087EF7D
:102130000E947510C2EAD1E089918F3F11F00E9490
:10214000751081E0CE3AD807B9F7DF91CF910895A5
:10215000AF92BF92DF92EF92FF920F931F93CF93B4
:10216000DF938C01D62EC62FD0E0CE0182559E4F34
:102170007C01FC0120812F3F09F44DC0F894E22F2F
:10218000E295EF70F0E031A12F7081E090E001C0A6
:10219000880F2A95EAF7932F982B91A392A1809507
:1021A000892382A378940E940710E2EAF1E04EEAC4
:1021B00051E021E030E0B12CA12C61916F3FA9F1F9
:1021C000A62FA295AF70B0E090968C9190E06F70C2
:1021D00002C0959587956A95E2F780FD26C0C901F2
:1021E000A82AB92A220F331F4E175F0731F7F701CC
:1021F00080818F3F11F00E94751061E0A114B1043D
:1022000009F460E08D2D0E940910CC0FDD1FC00F76
:10221000D11FB982A882DF91CF911F910F91FF90BA
:10222000EF90DF90BF90AF90089590E080E0D8CF1E
:10223000809104018091040194E0811190E09093D9
:10224000160384E0891B8093F5020E948C1080E1C4
:10225000E6E0F3E0DF01982F1D929A95E9F7E6EFAB
:10226000F2E0DF011D928A95E9F784E00E947B117C
:102270000E94F20F0895A0E1B0E0E1E4F1E10C94D6
:102280008E238E010F5F1F4F80E1F80111928A9516
:10229000E9F7F12C6F2DC8010E94A810F394F4E027
:1022A000FF12F8CF40E150E0B80186EF92E00E94C3
:1022B000CC2321E0009709F420E0892B41F080E154
:1022C000F801A6EFB2E001900D928A95E1F76091D6
:1022D000160370E0660F771F6A5F7C4F44E086EF5D
:1022E00092E00E947C11182F0E941010812B6096A2
:1022F000E5E00C94AA230895B0E0A0E0E2E8F1E163
:102300000C948B236C017B01042FC22F222379F0C4
:1023100081E08093A4020E947A1A9093A302809392
:10232000A20280E0CDB7DEB7E8E00C94A723D091FD
:10233000A402DD23B1F38091A2029091A3020E9436
:10234000921A059770F310E0000F111FA801B60153
:10235000C7010E94CC23892B31F0A801B601C70127
:102360000E94D923CD2F1092A4028C2FDBCFCF93C4
:102370000E945A23C82F811102C00E9455238C2F1E
:10238000CF9108958091A80208958091A7020895A1
:102390000E94C51108950E94B7118093A7020E9460
:1023A000C8118093A8020E94C211809304010E9468
:1023B000C51181110E94211208950E94C511811139
:1023C00002C00E942412089581E09091A9029A30DF
:1023D00008F080E008950F931F93CF93DF93EC01F3
:1023E0008B018091A9028A30B8F4B801CE010E9415
:1023F0006F12C82F811122C08091A9028F3FB9F4BA
:102400000E947A1A9093A6028093A5028C2FDF91E6
:10241000CF911F910F9108958091A5029091A602EE
:102420000E94921A843F914000F7C0E0EFCF8F5F87
:102430008093A9028A3020F7C1E0E8CF1092A90268
:10244000E5CF0E94681B08950E946B1B0895B0E0C1
:10245000A0E0EDE2F2E10C948C237901C82F880F03
:10246000DD0B41155105A9F0FE0193E0EE0FFF1FB2
:102470009A95E1F7EB5FFE4F8181928186559D4FE2
:10248000208130E04217530708F49A01A9010E9405
:10249000D923CE010E94541CD82E8823D1F00115D7
:1024A0001105B9F083E0CC0FDD1F8A95E1F7FE013D
:1024B000EB5FFE4F438150E00417150708F4A801B5
:1024C000CB5FDE4F6C817D8166557D4FC7010E94D9
:1024D000D9238D2DCDB7DEB7E7E00C94A8230E9459
:1024E000611308950E9478130895A4E0B0E0EBE72B
:1024F000F2E10C948F236091C7027091C802809121
:10250000C9029091CA020E94A11A11E064367105B5
:102510008105910518F10E949A0F6E5F7F4F8F4FD2
:102520009F4F69837A838B839C8310E000E030E0C7
:1025300020E044E050E0BE016F5F7F4F82E00E94E8
:102540002712182F882351F00E94861A6093C70221
:102550007093C8028093C9029093CA02812F249677
:10256000E4E00C94AB23B0E0A0E0E9EBF2E10C94E2
:1025700089237C015B016A010E94E41101E010E003
:10258000882311F00AE010E0C1E0D0E0B501C701F6
:10259000F6010995811104C021960C171D072CF432
:1025A000CDB7DEB7EAE00C94A523CC9F9001CD9F78
:1025B000300D300D112490E080E045E34A95F1F7AD
:1025C0000000019682179307C1F7E0CFA9E0B0E0C1
:1025D000ECEEF2E10C9489237B01C090B201D09023
:1025E000B30101E010E09E01275F3F4F50E040E063
:1025F00070E060E080E00E942712182F882309F421
:1026000048C056018FEFA81AB80A6091C3027091B2
:10261000C4028091C5029091C6020E94A11A64363C
:1026200071058105910568F108E010E09E012F5FBA
:102630003F4F50E040E070E060E081E00E942712F0
:10264000D82E68E070E0C5010E94CF1311E0998593
:10265000981310E01D2141F10E94861A6093C30275
:102660007093C4028093C5029093C60288E0FE0175
:102670003196ABEBB2E001900D928A95E1F711E053
:1026800013C068E070E0C5010E94CF1399858913DB
:10269000CBCF88E0F6013196DE01119601900D92C4
:1026A0008A95E1F71111E2CF88E0EBEBF2E0D70178
:1026B00001900D928A95E1F7812F2996EAE00C941A
:1026C000A5230F931F93CF93DF93EC018B0146EE6D
:1026D00052E10E94B312882331F045E752E1B8017C
:1026E000CE010E94B312DF91CF911F910F910895F7
:1026F0000F931F93CF93DF93C091B201D091B30199
:10270000CE01019628E0FB01DC0101900D922A9593
:10271000E1F768E070E00E94CF13888369857A85CD
:102720008B859C850091B7021091B8022091B90267
:102730003091BA02601771078207930751F06093D6
:10274000B7027093B8028093B9029093BA020E94C4
:102750007D0FDF91CF911F910F9108950E942B1E45
:102760000E94CA0C0E94381E08950E943D1E0E94BD
:10277000DB0C0E94571E08950E94131A0E94111E1E
:102780000E94B20C0E94AE130E94B5130E94C00CAE
:10279000FBCF9093B5018093B40108950895FC0197
:1027A000680F791F8FEF91E36E177F0709F4089583
:1027B0002191822728E030E087FF06C0880F892713
:1027C00021503109C9F7F0CF880FFACFCF93DF93AB
:1027D000EB0186319C4711F50E949E0A9D81992349
:1027E00099F08A7A91E009F490E09093CB028111FC
:1027F00009C089E20E945F190E94520B80E0DF91BC
:10280000CF91089585E3F6CF8091CB02811104C06A
:1028100089E20E947619F0CF85E3FBCF81E0EFCF0C
:10282000CF93DF93EC01FB018581882309F4D2C0AB
:102830009E0130572332310508F0B2C00E94DC0BF4
:102840009093F4028093F302FE01E150F047E232EC
:10285000F10520F4EE5BFB4D0C947B238091F30299
:1028600081608093F30293C08091F402886080932A
:10287000F4028DC08091F3028260F3CF8091F30265
:102880008460EFCF8091F3028860EBCF8091F402F7
:102890008160EDCF8091F4028260E9CF8091F302F4
:1028A0008061DFCF8091F3028062DBCF8091F30201
:1028B0008064D7CF0E9422068091F3028068D1CF36
:1028C0008091F3028C60CDCF8091F4028360CFCFF2
:1028D0008091F3028E7FC5CF8091F402877FC7CFAE
:1028E0008091F3028D7FBDCF8091F3028B7FB9CFB2
:1028F0008091F302877FB5CF8091F4028E7FB7CFAE
:102900008091F4028D7FB3CF8091F3028F7EA9CFA7
:102910008091F3028F7DA5CF8091F3028F7BA1CFB1
:102920000E9422068091F3028F779BCF8091F30261
:10293000837F97CF8091F4028C7F99CF8091F302AF
:1029400082FB992790F921E0922790FB82F990FB76
:1029500083F987CF8091F402982F909591708E7FA4
:10296000892B90FB81F983CF9091F302892F8F7B84
:1029700096FF806476CF0E9422069091F302892F01
:1029800097FB87F980586DCF81E00E946A0C809197
:10299000F3029091F4020E94E10B0E94220680E073
:1029A000DF91CF91089580E0F0CF9091F302892FCD
:1029B0008F7E94FF806155CF9091F302892F8E7F97
:1029C00090FF81604ECF9091F402892F877F93FF13
:1029D00088604DCF81E0E4CF282F35EB2303C00181
:1029E000112497FF04C080589109892F08958058B9
:1029F0009F4FFBCF8091D20280FF0DC060912201DA
:102A000070E0660F771F6038710570F5611571050C
:102A100069F1862F089581FF07C06091220184E04B
:102A2000689FB0011124EFCF6091220182FD0AC09E
:102A30008091D1028823A9F0209121016091220187
:102A4000821710F088E0ECCF869FC001112433E09C
:102A5000880F991F3A95E1F7622F70E00E94672373
:102A6000D2CF68E070E0D5CF8FE7089581E0089578
:102A70008091D20280FF0CC060911E0170E07595BC
:102A80006795759567956115710549F1862F0895CC
:102A900081FF06C060911E0170E075956795F3CFC8
:102AA00060911E0182FD0BC09091D0029923A1F08C
:102AB00060911D0180911E01961738F0682F70E01B
:102AC0006038710500F38FE70895899FC0011124D4
:102AD00070E00E946723F4CF61E070E0D7CF81E01F
:102AE00008959091D5022091D602922B2091D80280
:102AF000922B2091D702922B31F098E09093D10243
:102B000091E09093D0028D3C31F40E94FA148195AB
:102B10008093D60208958E3C19F40E94FA14F8CFDF
:102B20008F3C31F40E94FA1481958093D502089568
:102B3000803D19F40E94FA14F8CF893D29F40E94CF
:102B400038158093D70208958A3D21F40E943815E4
:102B50008195F7CF8B3D31F40E9438158195809394
:102B6000D80208958C3D19F40E943815F8CF9FE2E1
:102B7000980F983070F4815D990B21E030E001C02E
:102B8000220F8A95EAF78091D402822B8093D40297
:102B900008958D3D31F48091D20281608093D202FC
:102BA00008958E3D21F48091D2028260F7CF8F3D4F
:102BB000B9F78091D2028460F1CF4091D5028D3C6B
:102BC00059F48091D60287FF0DC01092D6024111B0
:102BD0000BC01092D10208C08E3C81F48091D602C5
:102BE00018169CF3442381F08091D7029091D8026B
:102BF000892B09F05AC01092D00208958F3C49F4F5
:102C000047FFF0CF1092D5028091D6028111ECCF10
:102C1000E0CF803D19F41416ACF3E4CF9091D702C5
:102C2000893D29F41916F4F61092D702DBCF8A3DBC
:102C300019F497FFD7CFF8CF9091D8028B3D29F4A4
:102C400097FFD0CF1092D802CDCF8C3D19F4191632
:102C5000CCF3C8CF9FE2980F983090F4815D990B28
:102C600021E030E0B90102C0660F771F8A95E2F7D4
:102C7000CB0180959091D40289238093D402B2CF66
:102C80008D3D31F48091D2028E7F8093D202AACF03
:102C90008E3D21F48091D2028D7FF7CF8F3D09F0D8
:102CA000A1CF8091D2028B7FF0CF08950E947A1A33
:102CB0009C019091D5028091D602982B21F03093FF
:102CC000CF022093CE029091D7028091D802982B08
:102CD00021F03093CD022093CC0283ED92E00E944C
:102CE0005C18089586E0E3EDF2E0DF011D928A951D
:102CF000E9F71092D1021092D0021092D2020895F8
:102D0000FC01828181110EC0838181110BC08481FD
:102D1000811108C091E08581811101C090E0892F67
:102D20008170089581E0FCCFA6E0B0E0EAE9F6E129
:102D30000C94902386E0E3EDF2E0DE011196019021
:102D40000D928A95E1F71092D5021092D602109258
:102D5000D7021092D8028B819C81892B89F08091B7
:102D6000CE029091CF020E94921AAC019091D102B2
:102D70009923C9F1809123018417150608F440C0F6
:102D80008D819E81892B91F08091CC029091CD0212
:102D90000E94921AAC019091D002992309F46AC062
:102DA00080911F018417150608F472C0BE016F5F81
:102DB0007F4F83ED92E00E94A719811105C083ED3A
:102DC00092E00E94801681110E94561686E0FE0154
:102DD0003196A3EDB2E001900D928A95E1F7269627
:102DE000E3E00C94AC23209124018AE0289F900119
:102DF00011242417350720F69F5F9093D10202C05B
:102E00009F3FD1F71B81112359F00E94FA149FEFC5
:102E100011160CF491E0899F802D11248093D50226
:102E20001C81112359F00E94FA149FEF11160CF423
:102E300091E0899F802D11248093D6028091D50244
:102E4000882309F49DCF1091D602112309F498CF5D
:102E50000E94EC14882351F08093D502812F0E94A8
:102E6000EC14882329F08093D6028ACF81E0F4CF36
:102E700081E0F9CF209120018AE0289F9001112460
:102E80002417350708F092CF9F5F9093D00202C0BD
:102E90009F3FD1F71D81112359F00E9438159FEFF4
:102EA00011160CF491E0899F802D11248093D70294
:102EB0001E81112359F00E9438159FEF11160CF452
:102EC00091E0899F802D11248093D8028091D702B0
:102ED000882309F46BCF1091D802112309F466CF2F
:102EE0000E94EC14882351F08093D702812F0E9416
:102EF000EC14882329F08093D80258CF81E0F4CFD6
:102F000081E0F9CF0F931F93CF93DF93C42FD22F7C
:102F1000FC0185818823C9F04093DB020E947A1A64
:102F20009093DA028093D90280E28C0F883040F4CB
:102F3000C77081E001C0880FCA95EAF70E94CC03F0
:102F4000DF91CF911F910F9108951091DB0214131F
:102F500032C08091D9029091DA020E94921A883C84
:102F6000910548F5C0E2CD0F1D17B9F080E2810F41
:102F7000883040F4177081E001C0880F1A95EAF795
:102F80000E94D303C83048F481E09D2F977001C0A0
:102F9000880F9A95EAF70E94CC03802F0E94C30302
:102FA000C83070F6D77081E001C0880FDA95EAF773
:102FB0000E94D303C5CF80E28C0F883008F6C7701B
:102FC00081E001C0880FCA95EAF7F2CF0F93DB01C9
:102FD00088519C4787309105A0F5FC01EC59FB4DC9
:102FE0000C947B2306E221EE41EE6AE17CE7CD0101
:102FF0000E94821780E00F91089507E225EE45EECA
:103000006BE17CE7F4CF06E221EE40EE68E17CE77D
:10301000EECF07E225EE44EE69E17CE7E8CF06E279
:1030200021EE42EE6CE17CE7E2CF07E225EE46EED0
:103030006DE17CE7DCCF08E221E045EE6EE17CE764
:10304000D6CF15968C91882319F01092DB02D3CF3E
:1030500081E0D1CF9093E2028093E10208950E9433
:10306000C511811103C08091DC020895E091E10255
:10307000F091E202309729F00190F081E02D09955E
:10308000089580E00895E091E102F091E202309726
:1030900021F00280F381E02D09950895E091E1028D
:1030A000F091E202309739F026E0DC012C930480A5
:1030B000F581E02D09950895E091E102F091E20299
:1030C000309739F022E0DC012C930680F781E02D67
:1030D00009950895A3E0B0E0E0E7F8E10C949123AE
:1030E0002091DF023091E00228173907A1F0909378
:1030F000E0028093DF02E091E102F091E20230977A
:1031000051F023E029839B838A830084F185E02D9D
:10311000CE01019609952396E2E00C94AD23A3E03D
:10312000B0E0E5E9F8E10C9491232091DD023091C3
:10313000DE0228173907A1F09093DE028093DD02AA
:10314000E091E102F091E202309751F024E029830E
:103150009B838A830084F185E02DCE010196099539
:103160002396E2E00C94AD232091020130910301FB
:103170002E5F3F4F80912F01882379F08091F302D9
:1031800087FF0BC020910001309101012E5F3F4F5E
:103190009EE180E0915018F4089596E0FACFF9018D
:1031A00041919F014423B1F38F5FF4CF882321F134
:1031B00090912F01992311F19091F30297FF1EC076
:1031C000E82FE695E695E695EE31B0F42091000102
:1031D00030910101E20FF32FF11D228130E0877061
:1031E00041E050E002C0440F551F8A95E2F72423C6
:1031F000352381E0232B91F480E008952091020192
:1032000030910301F9013296285F3F4F9191981751
:1032100021F0E217F307D1F7EFCF81E008959C0189
:10322000FC0132969FEF80E04191461751F09F3F9D
:1032300019F4411101C0982F8F5F8630A9F79F3F85
:1032400009F40895290F311D97FD3A95F90162831C
:103250000895FC01329608962191261303C0DF01E0
:1032600011971C92E817F907B9F70895E62FE6952C
:10327000E695E695EE3168F4E80FF92FF11D6770D9
:1032800021E030E001C0220F6A95EAF78281822BAB
:1032900082830895E62FE695E695E695EE3170F483
:1032A000E80FF92FF11D677021E030E001C0220F17
:1032B0006A95EAF720958281282322830895682F52
:1032C00080912F01882359F08091F30287FF07C076
:1032D00080910001909101010E943619089580911A
:1032E0000201909103010E940F190895682F8091A7
:1032F0002F01882359F08091F30287FF07C0809146
:103300000001909101010E944A19089580910201E3
:10331000909103010E942919089580912F0188231B
:1033200079F08091F30287FF0BC0E0910001F091EA
:10333000010132968EE1DF011D928A95E9F7089529
:10334000E0910201F0910301329686E0F4CFDC01B6
:10335000FB0111969C9111978181981322C01296BE
:103360008C911297882319F0928189131AC01396B1
:103370008C911397882319F09381891312C01596A5
:103380008C911597882319F0958189130AC014969A
:103390009C91992321F081E02481291303C080E0CE
:1033A00001C081E08170089508950E94D4190895A4
:1033B000811106C081E08093E3020E94D51908952F
:1033C00082E0F9CF83E08093E3020E94D51908954B
:1033D0000E94D819089581E08093E3020E94D519D4
:1033E00008950E94EB190895089508950E94F51913
:1033F0000895089508950E94F4190895CF930E94A6
:10340000F9190E943B110E94FA19C0E08C2F0E940A
:10341000F90F892B31F4CF5FC830C1F780E0CF912D
:10342000089581E0FCCF85B7806885BF85B7806847
:1034300085BF08951F921FB61F9211248F939F93EB
:10344000AF93BF938091E402811113C08091170361
:1034500090911803A0911903B0911A034196A11DF0
:10346000B11D8093170390931803A0931903B09391
:103470001A03BF91AF919F918F911F901FBE1F9014
:10348000189580911F03843031F10E94A30210929D
:10349000E40288E190E020E40FB6F894A8958093C8
:1034A00060000FBE2093600083B7817F846083BF7C
:1034B00083B7816083BF7894889583B78E7F83BFFD
:1034C0000FB6F894A89580916000886180936000A1
:1034D000109260000FBE08950E9422060E94A8026A
:1034E000089582E084BD93E095BD9AEF97BD8093E7
:1034F0006E0008952FB7F8948091170390911803E8
:10350000A0911903B0911A032FBF08952FB7F89413
:1035100060911703709118038091190390911A0319
:103520002FBF08959C014FB7F89480911703909195
:103530001803A0911903B0911A034FBF821B930B7C
:103540000895CF92DF92EF92FF922FB7F894C09038
:103550001703D0901803E0901903F0901A032FBFBF
:10356000A7019601261B370B480B590BCA01B9015D
:10357000FF90EF90DF90CF90089578941F921FB640
:103580001F9211248F939F93AF93BF938091170342
:1035900090911803A0911903B0911A030196A11DEF
:1035A000B11D8093170390931803A0931903B09350
:1035B0001A03BF91AF919F918F911F901FBE1F90D3
:1035C000189581E08093E00080E28093D80010920B
:1035D000C9008FE19EE40197F1F700C0000087E089
:1035E00090EBDC018093280390932903A0932A0396
:1035F000B0932B0388E19CE00FB6F894A8958093D4
:1036000060000FBE90936000FFCF88E19CE00FB692
:10361000F894A895809360000FBE90936000FFCF50
:103620008EE1489B02C08150E1F7489BFECF089590
:10363000589880E28A95F1F7589A0895FC013BE08A
:103640003A95F1F798E020E080E031E040E14A95DA
:10365000F1F7880F489B02C08160232742E04A951A
:10366000F1F7000040E14A95F1F7915079F790E1C8
:103670009A95F1F799B132E03A95F1F7000040E1FF
:103680004A95F1F7917092272081920F90830895C7
:10369000A1E0B0E0EEE4FBE10C948D2319828C01F3
:1036A0007C01E60EF11C0E151F0541F481E09981A5
:1036B000911180E02196E6E00C94A9230E94101B52
:1036C000CE0101960E941E1BF80181938F01EBCF62
:1036D000509A589A08955098589AE89AE9E6F0E076
:1036E00080818C7F808308956150770B91E001C0C9
:1036F000990F6A95EAF720E031E0911108C0222382
:1037000091F0589A80E28A95F1F758980895492FD8
:10371000482339F0589A232740E24A95F1F79695C5
:10372000ECCF5898F9CF5898EDCFFF920F931F9395
:10373000CF93DF93EC018C01060F111DC017D10749
:1037400029F4CDB7DEB7E5E00C94AA23F9900E94E6
:10375000181B68E08F2D0E94741BF0CF1F920F92F0
:103760000FB60F9211240F931F932F933F934F93F4
:103770005F936F937F938F939F93AF93BF93EF93D9
:10378000FF93CF93DF930F92CDB7DEB719820E94DC
:10379000101BCE0101960E941E1B082F0695069550
:1037A0000695282F22952570902F9570290F922F1E
:1037B000937026952695920F982797708981982B5C
:1037C00009F05CC0043008F059C080E18A95F1F737
:1037D000589A509A82E08A95F1F700C0589888E08C
:1037E000089F80011124D801AB5FBE4F1696ED9162
:1037F000FC9117973097A9F06091B2017091B301D5
:1038000014962D913C911597260F371F11968D9187
:103810009C911297680F791F13964C9113978C9176
:103820000995F801EB5FFE4F6381662351F020910B
:10383000B2013091B30184819581820F931F0E9460
:10384000951B0E94181B80E18A95F1F758985098B3
:10385000589A80E18A95F1F7F801EB5FFE4F60819D
:10386000662351F02091B2013091B30181819281A0
:10387000820F931F0E94481B0E94101B0F90DF9124
:10388000CF91FF91EF91BF91AF919F918F917F91D8
:103890006F915F914F913F912F911F910F910F90D9
:1038A0000FBE0F901F9018950F931F93CF93DF9328
:1038B000EC0104970CF04CC0F894509A589885E0AD
:1038C0008A95F1F700009C2F969595708C2F857046
:1038D000980F892F83709695969523E0CC0FDD1F66
:1038E0002A95E1F7980F8E01092B0E94181B00C042
:1038F00068E0802F0E94741B80E18A95F1F7509850
:10390000589A489B1EC087E090E048991CC0FE0171
:10391000EB5FFE4F63816623F9F02091B201309195
:10392000B30184819581820F931F0E94481B8111EE
:1039300013C0509A589A7894DF91CF911F910F91AC
:10394000089500C0DECF019729F4509A589A7894D0
:1039500080E0F2CF00C0D9CF0E94101B80E28A9590
:10396000F1F75898509A80E18A95F1F7CB5FDE4FD6
:103970006881662351F02091B2013091B3018981B1
:103980009A81820F931F0E94951B0E94181B7894A6
:1039900081E0D2CF8091ED0208959B01BA01909110
:1039A0001F039430E9F48F708093E9009FEF8091BA
:1039B000E800915085FD06C085ED8A95F1F700007D
:1039C0009111F5CF8091E80085FF0AC050E040E0FA
:1039D000C9010E94CE1E8091E8008E778093E80096
:1039E000089543E050E0BC0182E00E94CD1C0895A0
:1039F00046E050E0BC0182E00E94CD1C089540E208
:103A000050E0BC0182E00E94CD1C0895CF93DF936B
:103A1000EC0148E050E0BC0181E00E94CD1C88E050
:103A2000FE01A5EEB2E001900D928A95E1F7DF91DB
:103A3000CF91089580911E03811109C00E945E20DC
:103A40000E94BB208091E20084608093E200089590
:103A500010921E0308950E94EB19089560911B03B4
:103A600081E0611101C080E00E94E2190895909107
:103A70001F0381E0943009F080E060911B030E94F5
:103A8000E819089542E061EC81E00E94DA1F42E209
:103A900061EC82E00E94DA1F90911F0381E0943074
:103AA00009F080E060911B030E94D819089580916D
:103AB0002103833009F461C030F48130D1F18230C8
:103AC00009F49EC008958A3009F48AC08B3009F445
:103AD0006FC0893009F050C080912003813209F015
:103AE0004BC08091240390912503029708F044C0B5
:103AF0008091E800877F8093E8008091E80082FF52
:103B000037C09091F3008091F200029731F48091D8
:103B1000F100813011F0863021F48091F100809322
:103B2000ED028091E8008B778093E8000E940E20E0
:103B300023C080912003813AF9F48091E800877FC7
:103B40008093E8008091240390912503892B61F4F0
:103B500068E085EE92E070E00E941D1F8091E80011
:103B60008B778093E800089560E090E080E0F3CFE9
:103B700080911F038111C1CF089580912003813A64
:103B8000D9F78091240390912503892BA9F780917F
:103B9000E800877F8093E8008091E80080FFFCCFF9
:103BA00080912F018093F1008091E8008E77BCCF47
:103BB00080912003813201F78091240390912503A5
:103BC000892BD1F68091E800877F8093E8000E94DE
:103BD0000E208091220380932F010E9422060895D7
:103BE00080912003813241F68091E800877F8093A5
:103BF000E8000E940E20809123038093EE02089536
:103C000080912003813A09F0B7CF8091E800877F47
:103C10008093E8008091E80080FFFCCF8091EE0265
:103C2000C1CF84B7877F84BF0FB6F894A8958091E1
:103C30006000886180936000109260000FBE80E891
:103C400090E00FB6F89480936100909361000FBEEE
:103C50000E94F11908950E945E200E94BB20E2EEAE
:103C6000F0E080818460808378940E943A230895F4
:103C700085E291E00E942A18089580911F03853003
:103C800031F480911F03853019F00E946C1A089559
:103C90000E94411A80911D03882399F30E94FE1906
:103CA000882379F30E94B81E0E942206EACF089565
:103CB0009A0140912603509127030E94601E0895A7
:103CC000492F55274330510519F168F4413051050A
:103CD00009F444C04230510509F445C090E080E049
:103CE00050E040E025C04132510549F142325105D2
:103CF000A9F784E490E043EA52E061157105C1F050
:103D000086EB90E04DEE51E06130710589F0E6CF31
:103D100099278130910581F0009729F00297F1F6FB
:103D2000ECE6F1E002C0ECE9F1E0849190E0AF0153
:103D3000F901518340830895E4E8F1E0F6CF89E08A
:103D400090E042EB51E06115710591F389E090E05C
:103D50004BEC51E06130710559F3C0CF82E190E046
:103D60004BED51E0E5CF8BE390E040EA51E0E0CF4E
:103D700080E189BD82E189BD09B400FEFDCF80915B
:103D8000D8008F7D8093D8008091E000826080937E
:103D9000E0008091E00081FDFCCF0895AF92BF92DA
:103DA000CF92DF92FF920F931F93CF93DF936C011B
:103DB000EB018A010E942D20F82E811123C00115EC
:103DC000110539F0F80180819181C81BD90BC80E0B
:103DD000D91EB12CA12C2097A9F08091E80085FD77
:103DE00022C08091E8008E778093E80001151105CC
:103DF000A1F0F80180819181A80EB91EB182A08244
:103E000085E0F82E8F2DDF91CF911F910F91FF90BC
:103E1000DF90CF90BF90AF9008950E942D2088230F
:103E2000D1F2F82EEFCFF60181916F018093F1006E
:103E30002197FFEFAF1ABF0ACECFFC018091260376
:103E40009091270386179707A0F06115710529F453
:103E50009091E8009E779093E80090E061157105DD
:103E600051F4911108C08091E80082FF34C080E0D5
:103E70000895BC01F2CF80911F038823C1F18530E2
:103E8000C1F18091E80083FD30C08091E80082FD9F
:103E9000EACF8091E80080FFE1CF8091F30020918C
:103EA000F200382F6115710519F02830310558F0EE
:103EB00091E02830310509F090E02091E8002E775C
:103EC0002093E800CBCF81918093F100615071097C
:103ED0002F5F3F4FE7CF80911F03882341F085304C
:103EE00041F08091E80083FFBECF81E0089582E039
:103EF000089583E00895FC018091260390912703A3
:103F000086179707A0F06115710529F48091E800E4
:103F10008E778093E80090E06115710551F491115E
:103F200008C08091E80082FF35C080E00895BC01A0
:103F3000F2CF80911F038823C9F18530C9F18091A8
:103F4000E80083FD31C08091E80082FDEACF8091D6
:103F5000E80080FFE1CF8091F3002091F200382F3C
:103F60006115710519F02830310558F091E02830BD
:103F7000310509F090E08091E8008E778093E800A9
:103F8000CBCF84918093F1003196615071092F5FFE
:103F90003F4FE6CF80911F03882341F0853041F0E9
:103FA0008091E80083FFBDCF81E0089582E008950D
:103FB00083E00895982F973028F08F708093E90060
:103FC00081E008959093E900242F762F50E0981710
:103FD00031F07091EC002091ED005091F00021FD46
:103FE00002C09F5FE8CF3091EB003E7F3093EB0043
:103FF0003091ED003D7F3093ED003091EB0031606A
:104000003093EB007093EC002093ED005093F000A0
:104010002091EE0027FDE5CF80E0089580912003F8
:1040200087FF13C08091E80082FF06C08091E800FE
:104030008B778093E80004C080911F038111F2CF39
:10404000089580911F038823D9F38091E80080FFB1
:10405000F8CF8091E8008E77ECCF2091E40030918A
:10406000E50095E6A9012091EC00822F817020FFE8
:1040700006C08091E80080FF06C080E0089520918E
:10408000E80022FD1AC080911F03882389F0853043
:1040900089F08091EB0085FD0FC02091E400309104
:1040A000E50042175307F9F29150E1F684E00895D4
:1040B00082E0089583E0089581E008950E94CD2074
:1040C0000E94D520E0EEF0E0808181608083E8ED01
:1040D000F0E080818F77808319BCA7EDB0E08C91F0
:1040E0008E7F8C9380818F7E808310921E03089533
:1040F0000F931F93CF93DF930E94CD200E94D52072
:10410000C8EDD0E088818F77888388818068888334
:1041100088818F7D888319BC10921F0310921B0326
:1041200010921D0310921C0300EE10E0F801808134
:104130008B7F808388818160888342E060E080E0BB
:104140000E94DA1FE1EEF0E080818E7F8083E2EE54
:10415000F0E0808181608083808188608083F801C5
:1041600080818E7F8083888180618883DF91CF9179
:104170001F910F910895E8EDF0E080818F7E80839C
:10418000E7EDF0E080818160808384E082BF81E0A0
:1041900080931E030E9478200895E8EDF0E080816E
:1041A0008E7F80831092E20008951092DA001092C0
:1041B000E10008951F920F920FB60F9211242F93D2
:1041C0003F934F935F936F937F938F939F93AF939F
:1041D000BF93EF93FF938091E10082FF0BC080912A
:1041E000E20082FF07C08091E1008B7F8093E100B5
:1041F0000E9439238091DA0080FF19C08091D80095
:1042000080FF15C08091DA008E7F8093DA00809164
:10421000D90080FF96C080E189BD82E189BD09B4E3
:1042200000FEFDCF81E080931F030E941A1D809144
:10423000E10080FF19C08091E20080FF15C08091ED
:10424000E2008E7F8093E2008091E20080618093A3
:10425000E2008091D80080628093D80019BC85E08C
:1042600080931F030E942E1D8091E10084FF2BC0CC
:104270008091E20084FF27C080E189BD82E189BD91
:1042800089B5982F917080FFFBCF8091D8008F7DEA
:104290008093D8008091E1008F7E8093E10080912F
:1042A000E2008F7E8093E2008091E2008160809343
:1042B000E20080911B03882309F449C084E08093C5
:1042C0001F030E94371D8091E10083FF29C0809168
:1042D000E20083FF25C08091E100877F8093E100A9
:1042E00082E080931F0310921B038091E1008E7F78
:1042F0008093E1008091E2008E7F8093E2008091C4
:10430000E20080618093E20042E060E080E00E9491
:10431000DA1F8091F00088608093F0000E942B1DCE
:10432000FF91EF91BF91AF919F918F917F916F918D
:104330005F914F913F912F910F900FBE0F901F9063
:10434000189519BC10921F030E94281D70CF8091F0
:10435000E30087FD93E090931F03B3CF1F920F926A
:104360000FB60F9211242F933F934F935F936F9348
:104370007F938F939F93AF93BF93CF93DF93EF93ED
:10438000FF93D091E900DF708091EC00C82FC170DD
:1043900080FDC0E81092E9008091F000877F809353
:1043A000F00078940E94F2211092E9008091F000D0
:1043B00088608093F000CD2BCF70C093E900FF910F
:1043C000EF91DF91CF91BF91AF919F918F917F91AD
:1043D0006F915F914F913F912F910F900FBE0F9072
:1043E0001F901895AAE2B0E0E8EFF1E20C94902358
:1043F00080E293E02091F100FC012193CF01F3E0F2
:1044000088329F07B9F70E94571D8091E80083FF0B
:104410001EC180912003909121039A3008F017C1AA
:10442000E92FF0E0E559FB4D0C947B23803899F09F
:10443000823809F00CC1809124038F70873008F016
:1044400006C18093E9008091EB0085FB882780F905
:104450001092E90006C080911C0390911D039111F8
:1044600082609091E800977F9093E8008093F1003C
:104470001092F1008091E8008E77E5C0882309F45E
:10448000D3C0823009F0E3C0809122038111D6C0ED
:10449000809124038F702FEF280F263008F0D7C0AB
:1044A0008093E9002091EB0020FFC8C0933031F4E5
:1044B0008091EB0080628093EB00C0C09091EB0094
:1044C00090619093EB0021E030E001C0220F8A95CB
:1044D000EAF72093EA001092EA008091EB008860EE
:1044E000EACF8111B4C0109122031F778091E300BD
:1044F0008078812B8093E3008091E800877F809310
:10450000E8000E940E208091E80080FFFCCF80919F
:10451000E30080688093E30082E0111183E08093E0
:104520001F0395C08058823008F091C0809122030B
:10453000909123038C3D23E09207A1F583E08A83C9
:104540008AE289834FB7F894DE01139620E03EE0BB
:1045500051E2E32FF0E050935700E49120FF03C0B5
:10456000E295EF703F5FEF708E2F90E0EA30C0F081
:10457000C7968D939D932F5F243159F74FBF80913C
:10458000E800877F8093E8006AE270E0CE01019640
:104590000E941D1F8091E8008B778093E80057C030
:1045A000C096E7CF6091240370912503AE014F5F61
:1045B0005F4F0E94581EBC01892B09F448C090919E
:1045C000E800977F9093E80089819A810E947B1F81
:1045D000E1CF8038E1F58091E800877F8093E800A3
:1045E00080911B038093F10045CF811130C09091E1
:1045F0002203923060F58091E800877F8093E80085
:1046000090931B030E940E2080911B03882311F0BE
:1046100084E005C08091E30087FDFACF81E08093BC
:104620001F030E94421D13C080912203813079F440
:1046300081E0933009F080E080931D031092E9003F
:104640008091E800877F8093E8000E940E2080918F
:10465000E80083FF0AC08091E800877F8093E8002C
:104660008091EB0080628093EB00AA96E3E00C94CB
:10467000AC230895CF9380911F038823A1F0C091AC
:10468000E900CF709091EC00892F817090FD80E857
:10469000C82B1092E9008091E80083FD0E94F2216E
:1046A000CF70C093E900CF9108950E945E201092D0
:1046B0001F030895E8EDF0E08081806180838AE146
:1046C0008A95F1F700C08091D9008170089597FB19
:1046D000072E16F4009407D077FD09D00E94B82366
:1046E00007FC05D03EF4909581959F4F08957095F5
:1046F00061957F4F0895EE0FFF1F0590F491E02D17
:1047000009942F923F924F925F926F927F928F9275
:104710009F92AF92BF92CF92DF92EF92FF920F9350
:104720001F93CF93DF93CDB7DEB7CA1BDB0B0FB65A
:10473000F894DEBF0FBECDBF09942A883988488817
:104740005F846E847D848C849B84AA84B984C884AD
:10475000DF80EE80FD800C811B81AA81B981CE0FA4
:10476000D11D0FB6F894DEBF0FBECDBFED01089589
:10477000AA1BBB1B51E107C0AA1FBB1FA617B70787
:1047800010F0A61BB70B881F991F5A95A9F78095A3
:104790009095BC01CD010895FB01DC0104C08D9111
:1047A0000190801921F441505040C8F7881B990BA3
:1047B0000895FB01DC0102C001900D924150504070
:1047C000D8F70895F999FECF92BD81BDF89A99273F
:1047D00080B50895A8E1B0E042E050E00C942624B2
:1047E000DC01A40FB51F4150504048F0CB01840FAD
:1047F000951F2E910E94012441505040D0F70895FA
:10480000262FF999FECF92BD81BDF89A019700B489
:10481000021639F01FBA20BD0FB6F894FA9AF99A29
:104820000FBE08950396272F0E9401240E940024A2
:10483000252F0E940124242F0C9401240196272F58
:104840000E9401240C940024DC01CB01FC01F999A5
:10485000FECF06C0F2BDE1BDF89A319600B40D92CC
:1048600041505040B8F70895F894FFCF1B041B0443
:104870006B046B04D004EC044A044A04F10462059E
:10488000710571056814DC1470143A143E14741424
:104890004214781484144E14D514521488145614E7
:1048A0008C14B4145A149014BB14601496149E14EF
:1048B00046147C144A14801464149A14AA14C41460
:1048C000D31434146C14E31403180918F217FD17E9
:1048D0000F1815181B1816223E2227233E222723C5
:0A48E000712292222723E922F5221B
:1048EA005C027C02010000000100000000000000E0
:1048FA000801000000040900000000000028085018
:10490A00011E0A1401CA1C061DFF1CF81CF11C0119
:10491A00E200E900EA00B500B600B700CD00830165
:10492A00CC008A0192019401210223022402250269
:10493A00260227022A02B300B4006F0070009F010A
:10494A00CB019F02A002818283E200E900EA00B55E
:10495A0000B600B700CD008301CC008A0192019411
:10496A00012102230224022502260227022A02B377
:10497A0000B4006F0070009F01CB019F02A002816A
:10498A008283946697C634353534C6976694F4F5AF
:04499A00F6F7AA0280
:00000001FF
